:020000040800F2
:1000000000000220A91A0008F91A0008F91A0008CD
:10001000F91A0008F91A0008F91A0008000000008F
:10002000000000000000000000000000F91A0008B5
:10003000F91A000800000000F91A0008F10200088F
:10004000F91A0008F91A0008F91A0008F91A000844
:10005000F91A0008F91A0008F91A0008F91A000834
:10006000F91A0008F91A0008F91A0008F91A000824
:10007000F91A0008F91A0008F91A0008F91A000814
:10008000F91A0008F91A0008F91A0008000000001F
:10009000000000000000000000000000F91A000845
:1000A000F91A0008F91A0008F91A0008F91A0008E4
:1000B000F91A0008F91A0008F91A0008F91A0008D4
:1000C000F91A0008F91A0008F91A0008F91A0008C4
:1000D000F91A0008A5130008C51000080000000068
:1000E000BD020008F91A0008F91A00080000000013
:1000F000000000000000000000000000F91A0008E5
:1001000000000000F91A0008F91A0008F91A00089E
:1001100000000000000000000000000000000000DF
:10012000F91A0008F91A0008F91A0008F91A000863
:10013000F91A0008000000000000000000000000A4
:10014000000000000000000000000000F91A000894
:10015000F91A0008F91A0008F91A0008E51600084B
:10016000F91A0008F91A0008000000000000000059
:10017000000000000000000000000000000000007F
:1001800000000000F91A0008000000000000000054
:08019000F91A0008F91A000831
:1001A00010B5054C237833B9044B13B10448AFF3B1
:1001B00000800123237010BD5C00002000000000BF
:1001C000082F000808B5034B1BB103490348AFF3E0
:1001D000008008BD0000000060000020082F00081B
:1001E000034613F8012B002AFBD1181A0138704777
:1001F00001F0FF01102A2BDB10F0070F08D010F8D8
:10020000013B013A8B422DD010F0070F42B3F6D1DB
:10021000F0B441EA012141EA014122F007047FF0F4
:1002200000070023F0E80256083C85EA010586EA4B
:10023000010685FA47F5A3FA87F586FA47F6A5FA87
:1002400087F68EB9EED1F0BC01F0FF0102F0070293
:1002500032B110F8013B013A83EA010313B1F8D13E
:100260000020704701387047002D06BF354603381F
:10027000073815F0010F07D1013015F4807F02BF58
:10028000013015F4C03F0130F0BC0138704700BFA9
:1002900080B400AFBFF34F8F00BF064BDB6803F4A1
:1002A000E0620449044B1343CB60BFF34F8F00BFA0
:1002B00000BFFDE700ED00E00400FA0580B400AFE8
:1002C000084B1B6903F40053002B02D1064B01229B
:1002D0001A60064B4FF400525A6100BFBD465DF8EC
:1002E000047B70470008024078000020003C014079
:1002F00080B400AF064B5B680133054A5360054B81
:1003000000229A6000BFBD465DF8047B704700BFC5
:100310007800002010E000E080B500AF764B1B6B4A
:10032000754A43F001031363744B1B68734A23F44B
:1003300040631360714B1B68704A43F400631360A1
:100340006E4B5B686D4A23F0200353606B4B9B68D8
:100350006A4A23F440639360684B9B68674A43F49E
:1003600000639360654B1B6A644A23F47003136255
:10037000624B1B6A614A43F4801313625E4B1B6C31
:100380005D4A43F0010313645B4B5B6C5A4A43F0D4
:10039000010353644FF080431B684FF0804223F009
:1003A0000F0313604FF080431B684FF0804223F02F
:1003B000010313604FF080431B684FF0804243F00D
:1003C000800313604FF0804368229A614FF08043AE
:1003D0006422DA624FF0804340F23F129A624FF09B
:1003E000804300225A634FF0804301221A62424B3D
:1003F0001B6B414A43F004031363414B1B68404AA3
:1004000023F0406313603E4BDB683D4A23F04063BA
:10041000D360394B5B6C384A43F480435364394BA7
:100420001B68384A23F400531360374B5B69364A24
:1004300003F0F0035361344B5B69334A43F020030C
:100440005361304B9B682F4A23F4005393602D4B2C
:10045000DB682C4A43F40053D360274B5B6C264A7D
:1004600023F480435364294B102283F82823274B1D
:10047000F02283F80623254B40221A60234B4FF4C9
:1004800080725A601F4B1B681E4A43F4005313606E
:100490004FF080435B694FF0804243F001035361AA
:1004A0004FF080431B684FF0804243F0010313601C
:1004B000174B00221A60174B44F61F625A60154B07
:1004C00000229A60134B1B68124A23F00403136046
:1004D000104B1B680F4A23F4803313600D4B1B68CD
:1004E0000C4A43F00303136001F00CF800F09AFE8D
:1004F00001F0A8F900BF80BD0038024000000240B2
:1005000000080240003C01400038014000E100E0EA
:100510007800002010E000E080B584B000AF034612
:100520000A46FB711346BB71FB799AB2BB799BB249
:100530001B029BB21344BB81B7F90C30002B05DAC8
:10054000BB89A3F500439BB2FB8103E0BB895B42FF
:100550009BB2FB81322001F0E7FA0346BB60BB6827
:10056000002B05D1084801F069FD012001F0CAFA0D
:10057000B7F90E301A460549B86801F067FDBB6847
:1005800018461037BD4680BD202F00083C2F0008BC
:1005900080B584B000AF03460A46FB711346BB71B9
:1005A000FB799AB2BB799BB21B029BB21344BB810D
:1005B000B7F90C30002B05DABB89A3F500439BB2D9
:1005C000FB8103E0BB895B429BB2FB81322001F0DF
:1005D000ABFA0346BB60BB68002B05D1084801F0AD
:1005E0002DFD012001F08EFAB7F90E301A460549AB
:1005F000B86801F02BFDBB6818461037BD4680BDBA
:10060000202F0008442F000880B584B000AF786028
:100610007868FFF7E5FD0346BB600023FB6007E059
:10062000FB687A68134400221A70FB680133FB6090
:10063000FA68BB689A42F3DB00BF00BF1037BD46C3
:1006400080BD000080B5F0B000AF0023C7F8BC311A
:100650000023C7F8A031002387F8BB310023C7F877
:10066000B4310023C7F8B0310023C7F89C31002310
:10067000C7F89831002387F8AF31002387F8AE31EF
:1006800007F5E073A3F5B87300221A600433602203
:100690000021184601F03DFD07F5E073A3F5C8738E
:1006A00000221A60043300221A605A609A60DA60ED
:1006B0001A615A611A8307F5E073A3F5D873002213
:1006C0001A60043300221A605A609A60DA601A6174
:1006D0005A611A8307F5E073A3F5DA7300221A60F2
:1006E00007F5E073A3F5DC7300221A6007F5E073E9
:1006F000A3F5DE7300221A6007F5E073A3F5E0733B
:1007000000221A604FF47A73C7F8943141F28833AB
:10071000C7F890314CF25033C7F88C314FF4FA637C
:10072000C7F88831CB4BC7F88431FFF7F5FD01F0EE
:1007300079F90346002B0DD10821C74801F08CF947
:1007400000BF01F06FF90346002BFAD141F2883067
:1007500000F0E6FBC14B5A6813469B0013445B0054
:10076000C7F88031BD4B5A6813469B0013445B00A9
:10077000C7F87C31B94B5A6813469B0013445B00A1
:10078000C7F87831D7F88031B54A934201D9FFF7DD
:100790007FFDD7F89031C7F8A83197F8AF31052B16
:1007A00003D097F8AF31072B06D1D7F8A821D7F897
:1007B00088311344C7F8A83107F5E073A3F5DC735B
:1007C0001B68D7F87C21D31AD7F8A8219A4200F2E7
:1007D000188197F8AF31072B00F213810023C7F877
:1007E000B031D7F8B031C7F89C3197F8AF31002B52
:1007F00015D101F017F90346002B10D104219948B7
:1008000001F02AF900BF01F00DF90346002BFAD1DF
:1008100007F5E073A3F5DC73D7F87C211A6097F82D
:10082000AF31012B15D101F0FDF80346002B10D19B
:100830000D218D4801F010F900BF01F0F3F80346D7
:10084000002BFAD107F5E073A3F5DC73D7F87C2110
:100850001A6097F8AF31022B15D101F0E3F8034687
:10086000002B10D11C21814801F0F6F800BF01F0E7
:10087000D9F80346002BFAD107F5E073A3F5DC7332
:10088000D7F87C211A6097F8AF31032B15D101F00E
:10089000C9F80346002B10D10D21754801F0DCF892
:1008A00000BF01F0BFF80346002BFAD107F5E07353
:1008B000A3F5DC73D7F87C211A6097F8AF31042BCD
:1008C00021D101F0AFF80346002B1CD12821694843
:1008D00001F0C2F800BF01F0A5F80346002BFAD1E1
:1008E00007F5E073A3F5DC73D7F87C211A600123C8
:1008F00087F8AE3197F8AF31013387F8AF3140F266
:10090000DC5000F00DFB97F8AF31052B46D107F115
:10091000B40364220021184601F0FBFB0023C7F852
:10092000B031D7F8B031C7F89C3107F15003D7F890
:10093000B4215149184601F089FB07F150031846CC
:10094000FFF74EFC0346C7F8743107F13003D7F8C0
:1009500074214A49184601F079FB01F063F8034617
:10096000002B1BD107F130031E21184601F074F84B
:1009700000BF01F057F80346002BFAD107F5E073EA
:10098000A3F5DC73D7F87C211A6097F8AF310233F6
:1009900087F8AF3140F2DC5000F0C2FA97F8AF317F
:1009A000072B2ED101F03EF80346002B29D107F189
:1009B000B40364220021184601F0ABFB0023C7F802
:1009C000B031D7F8B031C7F89C3107F1500364213A
:1009D000184601F041F800BF01F024F80346002B4F
:1009E000FAD107F5E073A3F5DC73D7F87C211A6020
:1009F00097F8AF31013387F8AF3140F2DC5000F0A7
:100A00008FFA07F5E073A3F5E0731B68D7F87C2134
:100A1000D31AD7F884219A4201D8FFF739FC07F599
:100A20009E73184600F02EFE0346002B51D097F817
:100A30003D3103F00103DBB2002B4CD097F83D3180
:100A400003F01003DBB2002B1AD0D7F8BC31C7F883
:100A5000A03143E0A0860100542F00087800002058
:100A6000FF276BEE602F0008682F0008782F000822
:100A7000982F0008A82F0008D42F0008083000087D
:100A800097F83D3103F00803DBB2002B25D0D7F8EF
:100A9000BC311D2B04D9D7F8BC31C7F8A0311DE0FB
:100AA000D7F8BC315A1CC7F8BC2197F83C2103F594
:100AB000E0733B4403F8A82C97F8BB31013387F867
:100AC000BB3107F58C72D7F8BC31134400221A7081
:100AD00004E000BF02E000BF00E000BF97F8AF31C4
:100AE000082B00F2E28007F59C73184600F06AFFBD
:100AF0000346002B38D097F8393103F00103DBB2FD
:100B0000002B33D097F8393103F01003DBB2002B00
:100B100004D0D7F8B031C7F89C312AE097F83931C2
:100B200003F00803DBB2002B22D0D7F8B031632BDF
:100B300004D9D7F8B031C7F89C311AE0D7F8B031F2
:100B40005A1CC7F8B02197F8381107F5E072A2F5E2
:100B50008672D15407F5E073A3F58672D7F8B031E9
:100B6000134400221A7004E000BF02E000BF00E05E
:100B700000BF97F8AF31032B60D807F1B403E54904
:100B8000184601F0C1FCC7F89801D7F89831002B3E
:100B900027D097F8AF31052B23D007F1B403642297
:100BA0000021184601F0B5FA0023C7F8B031D7F894
:100BB000B031C7F89C3197F8AF31013387F8AF31C6
:100BC0000023C7F8983107F5E073A3F5DE73D7F873
:100BD00078211A6007F5E073A3F5E073D7F87C215C
:100BE0001A6097F8AF31052B28D107F1B4033E21E5
:100BF000184601F096FAC7F89801D7F89831002BFB
:100C00001CD007F1B40364220021184601F081FAD8
:100C10000023C7F8B031D7F8B031C7F89C3197F846
:100C2000AF31023387F8AF310023C7F8983107F5A9
:100C3000E073A3F5E073D7F87C211A6097F8AF3121
:100C4000082B32D107F1B403B349184601F05CFC1C
:100C5000C7F89801D7F89831002B26D007F1B403D4
:100C600064220021184601F054FA0023C7F8B0317D
:100C7000D7F8B031C7F89C3197F8AF31013387F816
:100C8000AF310023C7F8983107F5E073A3F5E0739F
:100C9000D7F87C211A6007F150031846FFF7B4FC1F
:100CA00007F130031846FFF7AFFC97F8BB311E2B56
:100CB0007FF450AD97F8AE31012B7FF44BAD97F830
:100CC0001831AA2B40F0FE8097F81931FF2B40F025
:100CD000F98097F81A31032B40F0F48097F81B3114
:100CE000002B40F0EF8097F83431552B40F0EA802C
:100CF00097F83531CC2B40F0E58097F81C3197F808
:100D00001D2111461846FFF707FCC7F8700197F838
:100D10001E3197F81F2111461846FFF7FDFBC7F853
:100D20006C0197F8203197F8212111461846FFF7FA
:100D30002FFCC7F86801D7F86C0100F0DEFEC7F899
:100D40006401D7F8700100F0D8FEC7F86001D7F849
:100D5000680100F0D2FEC7F85C01D7F86031B3F546
:100D6000487F30DBD7F8603140F2145293422ADCDE
:100D7000D7F86431B3F5487F25DD07F5E073A3F5B7
:100D8000DA731B68D7F88021D31AD7F894219A42D6
:100D900019D807F5E073A3F5DA73D7F880211A6044
:100DA000D7F85C31002B05DDD7F8B431013BC7F82B
:100DB000B43108E0D7F85C31002B04DAD7F8B4314D
:100DC0000133C7F8B431322000F0AEFE0346C7F855
:100DD0005831D7F85831002B05D1504801F02EF981
:100DE000012000F08FFE97F8243197F82521114655
:100DF0001846FFF791FBC7F8540197F8263197F88A
:100E0000272111461846FFF787FBC7F8500197F8CE
:100E1000283197F8292111461846FFF7B9FBC7F882
:100E20004C0197F82C3197F82D2111461846FFF701
:100E300073FBC7F8480197F82E3197F82F21114618
:100E40001846FFF769FBC7F8440197F8303197F867
:100E5000312111461846FFF79BFBC7F840010023DC
:100E6000C7F8BC31D7F8BC31C7F8A031002387F8E8
:100E7000BB31D7F8700100F05FFED7F86C0100F0CD
:100E80005BFED7F8540100F057FED7F8500100F090
:100E900053FED7F8480100F04FFED7F8440100F0A8
:100EA0004BFED7F8680100F047FED7F84C0100F080
:100EB00043FED7F8400100F03FFED7F8580100F09C
:100EC0003BFE25E00023C7F8A43113E0D7F8A43196
:100ED000013303F5E0733B4413F8A81C07F58C724B
:100EE000D7F8A43113440A461A70D7F8A431013355
:100EF000C7F8A431D7F8A4311C2BE7DDD7F8BC31F3
:100F0000013BC7F8BC3197F8BB31013B87F8BB31D7
:100F100020E400BF183000081C300008202F000813
:100F200080B485B000AF78600CE00023FB6002E085
:100F3000FB680133FB60FB68B3F5266FF8DD7B6867
:100F4000013B7B607B68002BEFDC00BF00BF1437E8
:100F5000BD465DF8047B704780B582B000AF786015
:100F6000396001F03FFB034616221A604FF0FF3351
:100F700018460837BD4680BD80B582B000AF7860A6
:100F80004FF0FF317868FFF7E7FF00BFFDE780B55E
:100F900086B000AFF860B9607A6000237B610AE038
:100FA000AFF300800146BB685A1CBA60CAB21A701F
:100FB0007B6901337B617A697B689A42F0DB7B68ED
:100FC00018461837BD4680BD80B586B000AFF860C2
:100FD000B9607A6000237B6109E0BB685A1CBA6083
:100FE0001B781846AFF300807B6901337B617A6917
:100FF0007B689A42F1DB7B6818461837BD4680BD96
:1010000080B483B000AF78604FF0FF3318460C37E0
:10101000BD465DF8047B704780B485B000AFF860D2
:10102000B9607A60002318461437BD465DF8047B2A
:101030007047000080B586B000AF7860144A154B49
:10104000D31A7B617B693B61134B1B68002B02D178
:10105000114B124A1A60104B1A687B6813443A69A4
:101060009A4207D201F0BEFA03460C221A604FF0F2
:10107000FF3309E0084B1B68FB60074B1A687B686D
:101080001344054A1360FB6818461837BD4680BDF7
:101090000000022000040000800000201005002055
:1010A00080B400AF064BD3F88830054A43F4700390
:1010B000C2F8883000BFBD465DF8047B704700BFB2
:1010C00000ED00E080B485B000AF504B1B68FB60C2
:1010D0004E4B5B68BB6000237B60FB6803F0200322
:1010E000002B36D0BB68DBB23B717B7943F0010348
:1010F0007B717B7943F008037B71FB6803F002038B
:10110000002B15D0BB68002B0ED17B7943F0200358
:101110007B717B796FF3C3037B713C4BDB683B4A8C
:1011200023F02003D36003E07B7943F002037B715B
:10113000FB6803F00103002B0BD07B7943F0040321
:101140007B717B7943F002037B717B796FF3C3037F
:101150007B71FB6803F01003002B0DD07B7943F00B
:1011600010037B717B7943F001037B71274BDB68B4
:10117000264A43F02003D3607B7903F00103DBB2FE
:10118000002B18D0224B1B685A1C21490A602149A8
:101190007A6841F823201E4B1B683F2B02D91C4B59
:1011A00000221A601C4B1B683F2B04D81A4B1B688B
:1011B0000133194A1360FB6803F08003002B1ED033
:1011C000164B1B68002B0ED0154B1B685A1C14497C
:1011D0000A601B78DAB20D4B5A60104B1B68013B5A
:1011E0000E4A13600BE0094BDB68084A23F08003CA
:1011F000D3600A4B00221A60094B00221A6000BF1C
:101200001437BD465DF8047B704700BF00440040C2
:101210008C0000209800002094000020880000200E
:101220008400002080B500AF564B00221A60564B58
:1012300000221A60554B00221A604FF48072002180
:10124000534800F066FF534B1B6B524A43F00103B7
:101250001363514B1B68504A23F0300313604E4B0D
:101260001B684D4A43F0200313604B4B1B684A4AEE
:1012700023F0C0031360484B1B68474A43F08003C8
:101280001360454B5B68444A23F004035360424BB0
:101290009B68414A43F0300393603F4BDB683E4A12
:1012A00023F0C003D3603C4BDB683B4A43F0800330
:1012B000D360394B1B6A384A23F47F431362364BA1
:1012C0001B6A354A43F4EE431362324B1B6C314ABE
:1012D00043F4003313642F4B1B6A2E4A43F400334C
:1012E00013622C4B1B6A2B4A23F4003313622B4BE3
:1012F000DB682A4A23F00C03D360284BDB68274ABB
:1013000043F40053D360254B9B68244A1B0C1B04F9
:101310009360224B9B68214A43F0230393601F4B49
:10132000DB681E4A23F40043D3601C4B1B691B4A35
:1013300023F440531361194BDB68184A23F480638C
:10134000D360164B1B69154A23F400631361134BDA
:10135000DB68124A23F48053D360104B5B690F4A59
:1013600023F4407353610E4B302283F826230C4B39
:1013700040225A60094BDB68084A43F03C03D360C3
:1013800000BF80BD8C000020900000209400002051
:101390009800002000380240000002400044004055
:1013A00000E100E080B485B000AF504B1B68FB60EB
:1013B0004E4B5B68BB6000237B60FB6803F020033F
:1013C000002B36D0BB68DBB23B717B7943F0010365
:1013D0007B717B7943F008037B71FB6803F00203A8
:1013E000002B15D0BB68002B0ED17B7943F0200376
:1013F0007B717B796FF3C3037B713C4BDB683B4AAA
:1014000023F02003D36003E07B7943F002037B7178
:10141000FB6803F00103002B0BD07B7943F004033E
:101420007B717B7943F002037B717B796FF3C3039C
:101430007B71FB6803F01003002B0DD07B7943F028
:1014400010037B717B7943F001037B71274BDB68D1
:10145000264A43F02003D3607B7903F00103DBB21B
:10146000002B18D0224B1B685A1C21490A602149C5
:101470007A6841F823201E4B1B683F2B02D91C4B76
:1014800000221A601C4B1B683F2B04D81A4B1B68A8
:101490000133194A1360FB6803F08003002B1ED050
:1014A000164B1B68002B0ED0154B1B685A1C144999
:1014B0000A601B78DAB20D4B5A60104B1B68013B77
:1014C0000E4A13600BE0094BDB68084A23F08003E7
:1014D000D3600A4B00221A60094B00221A6000BF39
:1014E0001437BD465DF8047B704700BF0010014013
:1014F000A0010020AC010020A80100209C010020D8
:101500009801002080B500AF564B00221A60564B60
:1015100000221A60554B00221A604FF4807200219D
:10152000534800F0F6FD534B1B6B524A43F0010346
:101530001363514B1B68504A23F4401313604E4B06
:101540001B684D4A43F4001313604B4B1B684A4A17
:1015500023F440231360484B1B68474A43F400239D
:101560001360454B5B68444A23F400735360424B5D
:101570009B68414A43F4402393603F4BDB683E4AFB
:1015800023F44013D3603C4BDB683B4A43F4001325
:10159000D360394B5B6A384A23F47F635362364B1E
:1015A0005B6A354A43F4EE635362324B5B6C314AFB
:1015B00043F0100353642F4B5B6A2E4A43F0100331
:1015C00053622C4B5B6A2B4A23F0100353622B4B64
:1015D000DB682A4A23F00C03D360284BDB68274AD8
:1015E00043F40053D360254B9B68244A1B0C1B0417
:1015F0009360224B9B68214A43F03F0393601F4B4B
:10160000DB681E4A23F40043D3601C4B1B691B4A52
:1016100023F440531361194BDB68184A23F48063A9
:10162000D360164B1B69154A23F400631361134BF7
:10163000DB68124A23F48053D360104B5B690F4A76
:1016400023F4407353610E4B302283F825230C4B57
:1016500020225A60094BDB68084A43F03C03D36000
:1016600000BF80BDA0010020A4010020A80100202F
:10167000AC01002000380240000002400010014090
:1016800000E100E080B483B000AF7860124B1B68CB
:10169000002B1AD07B68002B17D0104B1B685A1CEC
:1016A0000E490A607A680E4951F8233013600A4BDC
:1016B0001B68013B084A1360084B1B683F2B02D98B
:1016C000064B00221A60012300E0002318460C3765
:1016D000BD465DF8047B7047A8010020A4010020EE
:1016E000AC01002080B485B000AF504B1B68FB609C
:1016F0004E4B5B68BB6000237B60FB6803F02003FC
:10170000002B36D0BB68DBB23B717B7943F0010321
:101710007B717B7943F008037B71FB6803F0020364
:10172000002B15D0BB68002B0ED17B7943F0200332
:101730007B717B796FF3C3037B713C4BDB683B4A66
:1017400023F02003D36003E07B7943F002037B7135
:10175000FB6803F00103002B0BD07B7943F00403FB
:101760007B717B7943F002037B717B796FF3C30359
:101770007B71FB6803F01003002B0DD07B7943F0E5
:1017800010037B717B7943F001037B71274BDB688E
:10179000264A43F02003D3607B7903F00103DBB2D8
:1017A000002B18D0224B1B685A1C21490A60214982
:1017B0007A6841F823201E4B1B683F2B02D91C4B33
:1017C00000221A601C4B1B683F2B04D81A4B1B6865
:1017D0000133194A1360FB6803F08003002B1ED00D
:1017E000164B1B68002B0ED0154B1B685A1C144956
:1017F0000A601B78DAB20D4B5A60104B1B68013B34
:101800000E4A13600BE0094BDB68084A23F08003A3
:10181000D3600A4B00221A60094B00221A6000BFF5
:101820001437BD465DF8047B704700BF00140140CB
:10183000B4020020C0020020BC020020B002002040
:10184000AC02002080B500AF564B00221A60564B08
:1018500000221A60554B00221A604FF4807200215A
:10186000534800F056FC534B1B6B524A43F00103A4
:101870001363514B1B68504A23F4400313604E4BD3
:101880001B684D4A43F4000313604B4B1B684A4AE4
:1018900023F040731360484B1B68474A43F00073C2
:1018A0001360454B5B68444A23F400635360424B2A
:1018B0009B68414A43F4400393603F4BDB683E4AD8
:1018C00023F04073D3603C4BDB683B4A43F000732A
:1018D000D360394B5B6A384A23F47F235362364B1B
:1018E0005B6A354A43F408235362324B5B6C314ADE
:1018F00043F0200353642F4B5B6A2E4A43F02003CE
:1019000053622C4B5B6A2B4A23F0200353622B4B10
:10191000DB682A4A23F00C03D360284BDB68274A94
:1019200043F40053D360254B9B68244A1B0C1B04D3
:101930009360224B9B68214A43F08B0393601F4BBB
:10194000DB681E4A23F40043D3601C4B1B691B4A0F
:1019500023F440531361194BDB68184A23F4806366
:10196000D360164B1B69154A23F400631361134BB4
:10197000DB68124A23F48053D360104B5B690F4A33
:1019800023F4407353610E4B302283F847230C4BF2
:1019900080229A60094BDB68084A43F03C03D3601D
:1019A00000BF80BDB4020020B8020020BC020020AD
:1019B000C002002000380240000002400014014034
:1019C00000E100E080B483B000AF7860124B1B6888
:1019D000002B1AD07B68002B17D0104B1B685A1CA9
:1019E0000E490A607A680E4951F8233013600A4B99
:1019F0001B68013B084A1360084B1B683F2B02D948
:101A0000064B00221A60012300E0002318460C3721
:101A1000BD465DF8047B7047BC020020B802002080
:101A2000C002002080B400AF094B1B68002B03D11B
:101A3000084B1B68002B01D0012300E0002303F0BA
:101A40000103DBB21846BD465DF8047B704700BF5A
:101A5000AC020020B002002080B483B000AF7860F8
:101A600039600E4B1B68002B03D10D4B1B68002BFC
:101A700001D000230CE0094A7B681360084A3B68E8
:101A80001360084BDB68074A43F08003D3600123EF
:101A900018460C37BD465DF8047B7047AC02002049
:101AA000B002002000140140DFF834D00D480E4988
:101AB0000E4A002302E0D458C4500433C4188C42A8
:101AC000F9D30B4A0B4C002301E013600432A2420D
:101AD000FBD3FFF7E5FA00F08BFDFEF7B3FD70478F
:101AE00000000220000000205C00002004380008F4
:101AF0005C0000200C050020FEE70A22002100F017
:101B00004BB9000008B5064B044613B10021AFF3F2
:101B10000080044B1B6803B198472046FFF72CFA5E
:101B20000000000000050020024B0146186800F08C
:101B30002DB800BF0C000020024B0146186800F0D1
:101B40007FBD00BF0C00002070B50F4E0C46316801
:101B5000054611B900F024FD30602146284600F00A
:101B60001FFD431C03D14FF0FF34204670BDC41C41
:101B700024F00304A042F8D0211A284600F010FDFA
:101B80000130F2D1EFE700BFC00300202DE9F84398
:101B9000CD1C25F0030508350C2D38BF0C25002D74
:101BA000064601DBA94204D90C2333600020BDE8BE
:101BB000F883DFF8D48000F069F8D8F800301C46CC
:101BC00044BB29463046FFF7BFFF431C044658D1AB
:101BD000D8F800402746002F43D1002C4BD0236873
:101BE0003946304604EB030900F0DAFC814542D166
:101BF00021686D1A29463046FFF7A6FF01303AD01A
:101C000023682B442360D8F800305A6862BBC8F8B8
:101C100000700FE02268521B20D40B2A17D96119DB
:101C2000A342256018BF5960636808BFC8F8001058
:101C300062514B60304600F02FF804F10B00231D79
:101C400020F00700C21A1CBF1B1AA350AFE762683E
:101C5000A3420CBFC8F800205A60EBE72346646833
:101C6000AEE73C467F68B6E71A465B68A342FBD105
:101C700000235360DEE70C233360304600F00CF89D
:101C800094E70560D6E700BFC4030020014800F0D8
:101C9000D4BC00BF08050020014800F0CFBC00BF45
:101CA00008050020242B2DE9F0478646904601D8F0
:101CB000012B06D100F096FC162303600020BDE83E
:101CC000F08734480D462A4615F8014B065D16F09C
:101CD0000806F8D12D2C2DD12C780126951C33F037
:101CE000100209D1302C2AD12A7802F0DF02582ABA
:101CF00025D16C781023023506F1004C0CF1FF3C25
:101D00000022BCFBF3F9104603FB19CAA4F130070B
:101D1000092F1BD83C46A34227DD571C07D081451D
:101D200020D301D1A2451DDB00FB0340012215F8A1
:101D3000014BEBE72B2C04BF2C78951CCFE7002B35
:101D4000DAD1302C0CBF08230A23D5E7A4F14107D0
:101D5000192F01D8373CDEE7A4F16107192F04D809
:101D6000573CD8E74FF0FF32E1E7531C08D122235C
:101D7000CEF800306046B8F1000FA0D0691E06E032
:101D800006B14042B8F1000F99D0002AF6D1C8F848
:101D9000001094E72430000813460A460146024822
:101DA0000068FFF77FBF00BF0C000020002310B5C4
:101DB0000446C0E90033C0E904338360818143668F
:101DC000C2818361194608225C3000F0A2F90D4BF4
:101DD00063620D4BA3620D4BE3620D4B23630D4B0E
:101DE00024629C4206D003F16802944202D0D033B0
:101DF0009C4205D104F15800BDE8104000F01CBC25
:101E000010BD00BF8D200008AF200008E7200008AB
:101E10000B210008C8030020024A0349034800F0D0
:101E200069B800BF00000020A92D000810000020A4
:101E300041680C4B994210B5044601D000F0B4FF44
:101E4000A168094B994202D0204600F0ADFFE1683D
:101E5000064B994204D02046BDE8104000F0A4BFD4
:101E600010BD00BFC80300203004002098040020EB
:101E700010B50B4B0B4C0C4A1A6020460022042173
:101E8000FFF794FF04F1680001220921FFF78EFF9C
:101E900004F1D0000222BDE810401221FFF786BFF6
:101EA00000050020C8030020191E0008014800F0AA
:101EB000C4BB00BF09050020014800F0BFBB00BF44
:101EC0000905002010B50446FFF7F0FF236A1BB197
:101ED000BDE81040FFF7F0BF044B2362044B1B68C2
:101EE000002BF5D1FFF7C4FFF2E700BF311E000859
:101EF000000500202DE9F8430746884614460026D1
:101F0000D4E90195B9F1010905D52468002CF7D170
:101F10003046BDE8F883AB89012B07D9B5F90E30FF
:101F2000013303D029463846C04706436835E9E700
:101F3000036AF7B5C46805460E460BB9FFF7C2FF42
:101F4000636ED80705D4A389990502D4A06D00F06B
:101F500074FB2146284600F027FF1EBB296801AB11
:101F60000122284600F0EAF80746002845D131480A
:101F7000304FFEF735F9064656B1204600F03CFFDB
:101F8000334601463A46284600F01AFB002847DA55
:101F9000B4F90C3023F48052A281626ED20742D58C
:101FA00003B0F0BD3378002BD8D03046FEF718F9D7
:101FB000074657B1204600F01FFF3B460146324618
:101FC000284600F0FDFA002814DA1B481A4FFEF7E5
:101FD00007F90646002EC1D0204600F00DFF33461B
:101FE00001463A46284600F0EBFA0028B6DB361ADE
:101FF0000744EFE73F1A0644DBE7FEF7F1F8064631
:10200000002EB4D0204600F0F7FE334601463A4693
:10201000284600F0D5FA0028A9DB361A0744EFE776
:10202000361A0744A8E79B05BAD4A06D00F006FB5A
:10203000B6E700BF2731000824310008024B0146F3
:102040001868FFF775BF00BF0C0000200EB400B584
:102050009CB01DAB029006906FF0004109480791BB
:102060000491094953F8042B05910068019302A9D2
:1020700000F08CFB029B00221A701CB05DF804EB90
:1020800003B070470C0000200802FFFF10B50C469B
:10209000B1F90E1000F072FA0028ABBF636DA3898E
:1020A0001B1823F48053ACBF6365A38110BD2DE9D9
:1020B000F0411F468B89DB0505460C46164605D5C3
:1020C000B1F90E100223002200F046FAA389B4F9F8
:1020D0000E1023F48053A38132463B462846BDE8C8
:1020E000F04100F06DBA10B50C46B1F90E1000F0D9
:1020F00033FA431CA38915BF606523F4805343F46E
:102100008053A38118BFA38110BDB1F90E1000F058
:1021100013BA02440346934200D1704703F8011BEF
:10212000F9E7C9B20346184613F8012B12B18A42E7
:10213000F9D17047002918BF0020704710B5044638
:10214000084611461A468E2800F23081DFE810F06A
:102150008F00380192009400960098009A009C002D
:102160009E00A200A400A800AA00AC00AE002E01B0
:10217000B000B200B400B600B800BE00C000C60097
:10218000C800CA00CC00CE00D200D600D800DA00C9
:10219000DC00DE00E000E200E4002E012E012E0152
:1021A0002E012E012E012E012E01E800EC002E0141
:1021B0002E012E012E012E012E012E012E012E01A7
:1021C0002E012E012E012E01EE000801F000F2007A
:1021D0002E012E012E01F4002E012E012E01F600FB
:1021E0002E012E01FA002E012E01FC002E012E01DF
:1021F0002E012E012E012E012E012E012E012E0167
:10220000FE002E010001020104012E012E01260113
:102210002E012E012E012E012E012E012E012E0146
:10222000140106010A010C010E0110012E01120118
:1022300016011A01EA00C2002C01BA00D000BC004D
:10224000A000A6002A01F8002E011801C4001E01FA
:102250001C012E012E012E012E012E01D4002E0173
:102260002E012E01E6002801200122012401554BF8
:10227000184610BD544BFBE7544BF9E7544BF7E7B6
:10228000544BF5E7544BF3E7544BF1E7544BEFE76E
:10229000544BEDE7544BEBE7544BE9E7544BE7E77E
:1022A000544BE5E7544BE3E7544BE1E7544BDFE78E
:1022B000544BDDE7544BDBE7544BD9E7544BD7E79E
:1022C000544BD5E7544BD3E7544BD1E7544BCFE7AE
:1022D000544BCDE7544BCBE7544BC9E7544BC7E7BE
:1022E000544BC5E7544BC3E7544BC1E7544BBFE7CE
:1022F000544BBDE7544BBBE7544BB9E7544BB7E7DE
:10230000544BB5E7544BB3E7544BB1E7544BAFE7ED
:10231000544BADE7544BABE7544BA9E7544BA7E7FD
:10232000544BA5E7544BA3E7544BA1E7544B9FE70D
:10233000544B9DE7544B9BE7544B99E7544B97E71D
:10234000544B95E7544B93E7544B91E7544B8FE72D
:10235000544B8DE7544B8BE7544B89E7544B87E73D
:10236000544B85E7544B83E7544B81E7544B7FE74D
:10237000544B7DE7544B7BE7544B79E7544B77E75D
:10238000544B75E7544B73E7544B71E7544B6FE76D
:10239000544B6DE7544B6BE7544B69E7544B67E77D
:1023A000544B65E7544B63E7544B61E7002A08BF81
:1023B000224600F0BFF8524B002818BF034657E7EB
:1023C000504B55E7293100083B31000855310008D2
:1023D000653100087D31000887310008A13100080F
:1023E000B3310008C5310008DE310008EE310008C5
:1023F000FA31000817320008293200083A32000882
:102400004C32000858320008703200087C32000854
:102410008E3200089D320008AD320008BA32000842
:10242000D9320008E8320008F93200081D330008EC
:102430003B33000859330008793300089033000813
:102440009F330008AE330008C2330008DA330008B7
:10245000E8330008F53300080B3400081A3400088C
:10246000263400085534000866340008813400081A
:1024700094340008AA340008B3340008CA340008B1
:10248000D2340008DF340008F434000808350008AE
:10249000203500082F350008403500085335000866
:1024A0005F350008783500088C350008A73500082E
:1024B000BF350008D9350008E1350008113600089D
:1024C000303600084F3600086636000879360008B6
:1024D00092360008A9360008BF360008E03600082A
:1024E000F836000814370008273700083D37000881
:1024F000513700087337000899370008AA370008D9
:1025000028310008313100080A7870B56AB970BD09
:102510009A4209D10C46054614F8013F002BF6D02B
:1025200015F8016F9E42F7D001300378002BEFD1F0
:102530001846ECE70020704738B5064D00230446E6
:1025400008462B60FEF75CFD431C02D12B6803B1EB
:10255000236038BD0405002038B5074D0446084601
:10256000114600222A601A46FEF756FD431C02D18E
:102570002B6803B1236038BD0405002038B5074D32
:1025800004460846114600222A601A46FEF7FFFC60
:10259000431C02D12B6803B1236038BD0405002021
:1025A00038B5064D0023044608462B60FEF742FD71
:1025B000431C02D12B6803B1236038BD0405002001
:1025C00038B5074D04460846114600222A601A46CF
:1025D000FEF7FAFC431C02D12B6803B1236038BD1F
:1025E00004050020014B1868704700BF0C00002054
:1025F00070B50D4D0D4C641BA4100026A64209D1E8
:102600000B4D0C4C00F080FC641BA4100026A6426D
:1026100005D170BD55F8043B98470136EEE755F8F3
:10262000043B98470136F2E7FC370008FC37000806
:10263000FC370008003800087047704770470000FA
:1026400038B50546002941D051F8043C0C1F002B39
:10265000B8BFE418FFF71AFB1D4A136833B963606B
:1026600014602846BDE83840FFF716BBA34208D9DE
:10267000206821188B4201BF19685B680918216026
:10268000EDE71A465B680BB1A342FAD911685018FE
:10269000A0420BD120680144501883421160E0D160
:1026A00018685B68536008441060DAE702D90C23AD
:1026B0002B60D6E7206821188B4204BF19685B683D
:1026C000636004BF091821605460CAE738BD00BFC9
:1026D000C40300202DE9F0478E681F46BE420B68F8
:1026E00082460C4690462DD8B1F90C2012F4906F1A
:1026F00026D06569096905EB4505A3EB010905EBE2
:10270000D5757B1C4B446D109D4238BF1D4653054B
:1027100027D52946FFF73AFA064660B321694A46AB
:1027200000F0AEFBA38923F4906343F08003A38100
:10273000266165614E44A5EB09052660A5603E460D
:10274000BE4200D93E4620683246414600F07EFB3C
:10275000A3689B1BA3602368334423600020BDE86B
:10276000F0872A4600F09AFB06460028E0D121694E
:102770005046FFF765FF0C23CAF80030A38943F0E9
:102780004003A3814FF0FF30E9E700002DE9F04F4F
:1027900098468B891B069DB007460D46144610D5FA
:1027A0000B6973B94021FFF7F1F92860286130B94E
:1027B0000C233B604FF0FF301DB0BDE8F08F40238D
:1027C0006B610023099320238DF82930CDF80C800C
:1027D0003023DFF89C818DF82A304FF00109234621
:1027E0009A4613F8012B0AB1252AF9D1BAEB040B4A
:1027F0000BD05B46224629463846FFF76BFF013077
:1028000000F0A780099A5A4409929AF80030002BE8
:1028100000F09F8000234FF0FF32CDE905230AF13D
:10282000010A049307938DF853301A9354460522F6
:1028300014F8011B4E48FDF7DBFC049AD8B9D0060A
:1028400044BF20238DF85330110744BF2B238DF84C
:1028500053309AF800302A2B15D0079A544600209E
:102860004FF00A0C214611F8013B303B092B4BD9A4
:10287000B0B1079214E0A0EB080309FA03F3134385
:102880000493A246D2E7039B191D1B680391002BFA
:10289000BBBF5B4242F0020207930793B8BF0492AA
:1028A00023782E2B0AD163782A2B32D1039B1A1D51
:1028B0001B68039243EAE37302340593DFF8C0A078
:1028C000217803225046FDF793FC38B1049BA0EB1E
:1028D0000A004022824013430134049314F8011B80
:1028E00024488DF828100622FDF782FC002836D0F7
:1028F000214B1BBB039B073323F0070308330393D0
:10290000099B334409936AE70CFB02320C46012011
:10291000A8E700230134059319464FF00A0C20461E
:1029200010F8012B303A092A03D9002BC6D00591A3
:10293000C4E70CFB012104460123F0E703AB00933D
:102940002A460E4B04A93846AFF30080421C0646C7
:10295000D6D1AB895B063FF52DAF09982CE703ABC9
:1029600000932A46054B04A9384600F079F8EDE7B4
:10297000BF370008C937000800000000D52600084E
:10298000C53700082DE9F047164698468A680B6956
:10299000DDF820909342B8BF1346336091F843208E
:1029A00007460C460AB1013333602368990642BFDB
:1029B000336802333360256815F0060506D104F14B
:1029C000190AE36832689B1AAB4226DC94F843305C
:1029D0002268003B18BF012392062BD404F1430266
:1029E00041463846C84701301ED02368226903F0AB
:1029F0000603042B02BFE5683368ED1AA3680CBF19
:102A000025EAE57500259342C4BF9B1AED18002600
:102A10001A34B5421AD1002008E00123524641463B
:102A20003846C847013003D14FF0FF30BDE8F0878A
:102A30000135C6E7E1185A1C302081F843002244D2
:102A400094F8451082F843100233C7E70123224669
:102A500041463846C8470130E6D00136D9E7000084
:102A60002DE9FF470F7E0C9E782F914680460C463D
:102A70009A4601F1430207D8622F0AD8002F00F0CE
:102A8000D280582F00F0B98004F1420684F84270D9
:102A90003AE0A7F16303152BF6D801A151F823F012
:102AA000F92A00080D2B0008892A0008892A000845
:102AB000892A0008892A00080D2B0008892A0008A5
:102AC000892A0008892A0008892A00080D2C000894
:102AD000372B0008C72B0008892A0008892A00081C
:102AE0002F2C0008892A0008372B0008892A0008A3
:102AF000892A0008CF2B000833681A1D1B68326032
:102B000004F1420684F8423001239DE033682068D6
:102B1000191D3160060601D51D6803E04506FBD589
:102B2000B3F90050002D03DA2D236D4284F84330B1
:102B300059480A2311E021683368080653F8045BFA
:102B400002D4490648BFADB26F2F5348336014BF5B
:102B50000A230823002184F843106668A660002E2B
:102B6000A2BF216821F0040121600DB9002E4BD0D5
:102B70001646B5FBF3F103FB1157C75D06F8017D5F
:102B80002F46BB420D46F4D9082B0BD12368DF0733
:102B900008D5236961689942DEBF302306F8013CFD
:102BA00006F1FF36921B2261CDF800A04B4603AA26
:102BB00021464046FFF7E6FE01304AD14FF0FF3094
:102BC00004B0BDE8F087236843F020032360334856
:102BD000782784F84570236831681F0651F8045B34
:102BE00002D45F0648BFADB23160D90744BF43F09D
:102BF000200323601DB11023ACE72748E9E72368D1
:102C000023F020032360F6E71646BDE73368256806
:102C10006169181D30602E061B6801D5196002E03D
:102C20006806FBD51980002323611646BCE733688C
:102C30001A1D32601E68626800213046FDF7D8FA1E
:102C400008B1801B606063682361002384F843300F
:102C5000AAE72369324649464046D0470130ADD005
:102C600023689B0713D4E068039B9842B8BF1846BB
:102C7000A6E70123324649464046D04701309DD061
:102C80000135E36803995B1AAB42F2DCEBE7002500
:102C900004F11906F5E700BFD0370008E137000856
:102CA000B1F90C202DE9F041160705460C4654D425
:102CB0004B68002B02DC0B6C002B48DDE66A002E13
:102CC00045D0002312F480522F68216A2B6030D047
:102CD000626DA389590705D56368D21A636B0BB17E
:102CE000236CD21A0023E66A216A2846B047431CA7
:102CF000A38906D129681D292BD82A4A0A41D6075B
:102D000027D400226260D9042269226004D5421CC3
:102D100001D12B6803B96065616B2F60B9B104F113
:102D20004403994202D02846FFF78AFC00236363DC
:102D30000DE001232846B0470246501CC9D12B683C
:102D4000002BC6D01D2B01D0162B1ED12F600020CA
:102D500022E043F040031BB21BE00F69002FF6D0C6
:102D600093070E6808BF4B690F6018BF0023A6EBDE
:102D700007088B60B8F1000FE9DD216AA66A4346B7
:102D80003A462846B047002808DCB4F90C3043F036
:102D90004003A3814FF0FF30BDE8F0810744A8EB6A
:102DA0000008E7E7FEFFBFDF38B50B6905460C46B4
:102DB00013B90025284638BD18B1036A0BB9FFF7CF
:102DC00081F8B4F90C30002BF3D0626ED00704D434
:102DD000990502D4A06DFFF730FC28462146FFF785
:102DE0005FFF636EDA070546E4D4A3899B05E1D44F
:102DF000A06DFFF723FCDDE738B5134D04462868C6
:102E000018B1036A0BB9FFF75DF8636ED80705D4F4
:102E1000A389990502D4A06DFFF70FFCB4F90C301B
:102E20005BB1B4F90E50626ED20704D49B0502D494
:102E3000A06DFFF703FC284638BD2A680921116000
:102E40004FF0FF35EFE700BF0C000020884210B5BF
:102E500001EB020402D98442234607D8431EA14253
:102E600008D011F8012B03F8012FF8E702440146BE
:102E70008A4200D110BD13F8014D02F8014DF7E769
:102E80000A44914200F1FF3300D1704710B511F8A8
:102E9000014B03F8014F9142F9D110BD2DE9F041EA
:102EA000804615460C4621B9BDE8F0411146FEF7B3
:102EB0006DBE2AB9FFF7C4FB00242046BDE8F081AF
:102EC00000F01AF88542064602D8B5EB500FF4D848
:102ED00029464046FEF75AFE07460028ECD0B54288
:102EE0002A46214628BF3246FFF7CAFF2146404600
:102EF000FFF7A6FB3C46E0E751F8043C181F002B07
:102F0000BCBF0B58C0187047F8B500BFF8BC08BC70
:102F10009E467047F8B500BFF8BC08BC9E46704797
:102F20004D656D6F727920616C6C6F636174696F50
:102F30006E206661696C6564000000002564206D88
:102F40006D000000256420636D2F73001B5B324A07
:102F50001B5B480041542B5253540D0A00000000E3
:102F600041540D0A0000000041542B43574D4F447B
:102F7000453D310D0A00000041542B43574A415052
:102F80003D224C796C65222C2273656C656E6975E7
:102F90006D220D0A0000000041542B4349504D554D
:102FA000583D300D0A00000041542B434950535402
:102FB0004152543D22544350222C223138342E3178
:102FC00030362E3135332E313439222C38300D0A3B
:102FD00000000000474554202F7570646174653F00
:102FE0006170695F6B65793D4850534F303152597C
:102FF0004C4A344543375644266669656C64313D16
:1030000025640D0A0000000041542B4349505345EC
:103010004E443D25640D0A004F4B0000434C4F5376
:10302000454400002020202020202020202828287F
:103030002828202020202020202020202020202080
:1030400020202020881010101010101010101010C8
:1030500010101010040404040404040404041010E8
:103060001010101010414141414141010101010185
:103070000101010101010101010101010101011031
:10308000101010101042424242424202020202025A
:103090000202020202020202020202020202021002
:1030A00010101020000000000000000000000000D0
:1030B0000000000000000000000000000000000010
:1030C0000000000000000000000000000000000000
:1030D00000000000000000000000000000000000F0
:1030E00000000000000000000000000000000000E0
:1030F00000000000000000000000000000000000D0
:1031000000000000000000000000000000000000BF
:1031100000000000000000000000000000000000AF
:10312000000000003A20000A005375636365737362
:10313000004E6F74206F776E6572004E6F2073754E
:1031400063682066696C65206F72206469726563CC
:10315000746F7279004E6F20737563682070726FA0
:103160006365737300496E7465727275707465641B
:103170002073797374656D2063616C6C00492F4F07
:10318000206572726F72004E6F20737563682064E1
:103190006576696365206F7220616464726573731C
:1031A00000417267206C69737420746F6F206C6FBC
:1031B0006E67004578656320666F726D6174206587
:1031C00072726F7200536F636B657420616C72650D
:1031D00061647920636F6E6E65637465640042613B
:1031E000642066696C65206E756D626572004E6F55
:1031F000206368696C6472656E0044657374696EFF
:103200006174696F6E2061646472657373207265A6
:10321000717569726564004E6F206D6F7265207004
:10322000726F636573736573004E6F7420656E6FA4
:10323000756768207370616365005065726D6973AE
:1032400073696F6E2064656E696564004261642015
:103250006164647265737300446576696365206FA9
:1032600072207265736F7572636520627573790081
:1032700046696C65206578697374730043726F7377
:10328000732D646576696365206C696E6B004E6FA3
:10329000207375636820646576696365004E6F749A
:1032A0002061206469726563746F727900486F737E
:1032B0007420697320646F776E00436F6E6E656370
:1032C00074696F6E20616C726561647920696E202B
:1032D00070726F677265737300497320612064694F
:1032E000726563746F727900496E76616C696420EF
:1032F000617267756D656E74004E6574776F726B81
:1033000020696E74657266616365206973206E6FF3
:103310007420636F6E6669677572656400436F6ED3
:103320006E656374696F6E2061626F72746564208C
:103330006279206E6574776F726B00546F6F206DC9
:10334000616E79206F70656E2066696C65732069A7
:103350006E2073797374656D0046696C65206465D1
:103360007363726970746F722076616C7565207416
:103370006F6F206C61726765004E6F74206120630F
:103380006861726163746572206465766963650063
:10339000546578742066696C65206275737900469F
:1033A000696C6520746F6F206C6172676500486F8F
:1033B000737420697320756E726561636861626CF5
:1033C00065004E6F207370616365206C65667420C4
:1033D0006F6E20646576696365004E6F7420737547
:1033E00070706F7274656400496C6C6567616C2005
:1033F0007365656B00526561642D6F6E6C79206634
:10340000696C652073797374656D00546F6F206DFE
:10341000616E79206C696E6B730042726F6B656EC2
:103420002070697065004D617468656D61746963D1
:103430007320617267756D656E74206F7574206F8F
:103440006620646F6D61696E206F662066756E63BD
:1034500074696F6E00526573756C7420746F6F20A1
:103460006C61726765004E6F206D6573736167658F
:10347000206F662064657369726564207479706575
:10348000004964656E7469666965722072656D6F66
:1034900076656400496C6C6567616C20627974655F
:1034A0002073657175656E636500446561646C6F5A
:1034B000636B004E6574776F726B20697320756E55
:1034C000726561636861626C65004E6F206C6F634A
:1034D0006B004E6F7420612073747265616D0053D0
:1034E000747265616D20696F63746C2074696D65B9
:1034F0006F7574004E6F2073747265616D20726514
:10350000736F7572636573005669727475616C20B0
:103510006369726375697420697320676F6E6500F3
:1035200050726F746F636F6C206572726F720055AA
:103530006E6B6E6F776E2070726F746F636F6C005E
:103540004D756C7469686F7020617474656D70740A
:10355000656400426164206D657373616765004650
:10356000756E6374696F6E206E6F7420696D706C18
:10357000656D656E746564004469726563746F722D
:1035800079206E6F7420656D7074790046696C6582
:10359000206F722070617468206E616D6520746F99
:1035A0006F206C6F6E6700546F6F206D616E7920B5
:1035B00073796D626F6C6963206C696E6B73004E1A
:1035C0006F20627566666572207370616365206145
:1035D0007661696C61626C65004E6F206461746134
:1035E00000416464726573732066616D696C792053
:1035F0006E6F7420737570706F7274656420627979
:103600002070726F746F636F6C2066616D696C7986
:103610000050726F746F636F6C2077726F6E6720EB
:103620007479706520666F7220736F636B657400C8
:10363000536F636B6574206F7065726174696F6E30
:10364000206F6E206E6F6E2D736F636B657400500C
:10365000726F746F636F6C206E6F74206176616936
:103660006C61626C6500436F6E6E656374696F6E4A
:10367000207265667573656400436F6E6E65637472
:10368000696F6E207265736574206279207065655C
:1036900072004164647265737320616C7265616469
:1036A0007920696E20757365004164647265737377
:1036B000206E6F7420617661696C61626C65005385
:1036C0006F667477617265206361757365642063EA
:1036D0006F6E6E656374696F6E2061626F727400E5
:1036E000536F636B6574206973206E6F7420636F12
:1036F0006E6E656374656400536F636B65742069F7
:103700007320616C726561647920636F6E6E6563AE
:10371000746564004F7065726174696F6E206361D7
:103720006E63656C6564005374617465206E6F74BC
:10373000207265636F76657261626C6500507265B8
:1037400076696F7573206F776E6572206469656442
:10375000004F7065726174696F6E206E6F742073B4
:103760007570706F72746564206F6E20736F636B19
:1037700065740056616C756520746F6F206C6172A2
:10378000676520666F7220646566696E6564206493
:103790006174612074797065004D6573736167654C
:1037A00020746F6F206C6F6E6700436F6E6E656381
:1037B00074696F6E2074696D6564206F7574002381
:1037C0002D302B2000686C4C00656667454647002D
:1037D0003031323334353637383941424344454647
:1037E00000303132333435363738396162636465DD
:0437F000660000006F
:0837F400ECC9FF7F0100000099
:0437FC00C5010008FB
:04380000A10100081A
:103804000000000003000000C80300201000002096
:1038140000000000C80300203004002098040020A9
:103824000000000000000000000000000000000094
:103834000000000000000000000000000000000084
:103844000000000000000000000000000000000074
:0C38540000000000000000000000000068
:0400000508001AA92C
:00000001FF
