:020000040800F2
:1000000000000220B11200080113000801130008CB
:10001000011300080113000801130008000000008C
:1000200000000000000000000000000001130008B4
:10003000011300080000000001130008C5020008B9
:100040000113000801130008011300080113000840
:100050000113000801130008011300080113000830
:100060000113000801130008011300080113000820
:100070000113000801130008011300080113000810
:10008000011300080113000801130008000000001C
:100090000000000000000000000000000113000844
:1000A00001130008011300080113000801130008E0
:1000B00001130008011300080113000801130008D0
:1000C00001130008011300080113000801130008C0
:1000D000011300080D0C00082D09000800000000A5
:1000E000910200080113000801130008000000003D
:1000F00000000000000000000000000001130008E4
:10010000000000000113000801130008011300089B
:1001100000000000000000000000000000000000DF
:10012000011300080113000801130008011300085F
:1001300001130008000000000000000000000000A3
:100140000000000000000000000000000113000893
:10015000011300080113000801130008ED0E000848
:100160000113000801130008000000000000000057
:10017000000000000000000000000000000000007F
:100180000000000001130008000000000000000053
:0801900001130008011300082F
:1001A00010B5054C237833B9044B13B10448AFF3B1
:1001B00000800123237010BD5000002000000000CB
:1001C000941C000808B5034B1BB103490348AFF367
:1001D000008008BD0000000054000020941C0008AE
:1001E000034613F8012B002AFBD1181A0138704777
:1001F00001F0FF01102A2BDB10F0070F08D010F8D8
:10020000013B013A8B422DD010F0070F42B3F6D1DB
:10021000F0B441EA012141EA014122F007047FF0F4
:1002200000070023F0E80256083C85EA010586EA4B
:10023000010685FA47F5A3FA87F586FA47F6A5FA87
:1002400087F68EB9EED1F0BC01F0FF0102F0070293
:1002500032B110F8013B013A83EA010313B1F8D13E
:100260000020704701387047002D06BF354603381F
:10027000073815F0010F07D1013015F4807F02BF58
:10028000013015F4C03F0130F0BC0138704700BFA9
:1002900080B400AF084B1B6903F40053002B02D15C
:1002A000064B01221A60064B4FF400525A6100BF00
:1002B000BD465DF8047B7047000802406C000020DA
:1002C000003C014080B400AF064B5B680133054A37
:1002D0005360054B00229A6000BFBD465DF8047B69
:1002E000704700BF6C00002010E000E080B500AF58
:1002F0002E4B44F61F625A602C4B00229A602B4B07
:100300001B682A4A23F004031360284B1B68274A02
:1003100023F480331360254B1B68244A43F0030306
:100320001360234B1B6B224A43F001031363204BE2
:100330001B6B1F4A43F0020313631E4B1B681D4ACD
:1003400023F4006313601B4B1B681A4A43F4806359
:100350001360184B5B68174A23F020035360154B5A
:100360005B69144A23F020035361124B1B68114A46
:1003700023F4001313600F4B1B680E4A23F4801301
:1003800013600C4BDB680B4A23F40013D360094B5A
:10039000DB68084A23F48013D36000F0E7FC00F028
:1003A00075FB00F053FE00BF80BD00BF10E000E011
:1003B000003802400000024080B5CEB000AF0023FC
:1003C000C7F834310023C7F824310023C7F820319F
:1003D000002387F83331002387F8323100233B6450
:1003E00007F1440360220021184600F0ABFF07F537
:1003F0009C73A3F58C7300221A60043300221A60E8
:100400005A609A60DA601A615A611A8307F59C7320
:10041000A3F59C7300221A60043300221A605A600C
:100420009A60DA601A615A611A830023C7F81C3196
:100430000023C7F82C31FFF759FF00F0F7FE034601
:10044000002B0DD10821B54800F00AFF00BF00F0D5
:10045000EDFE0346002BFAD141F2883000F002FA9B
:10046000AF4B5A6813469B0013445B00C7F8183122
:10047000AB4B5A6813469B0013445B00C7F814311A
:1004800041F28833C7F8283197F83331052B03D070
:1004900097F83331072B06D14FF4FA62D7F8283199
:1004A0001344C7F828319F4B1B68D7F81821D31A7B
:1004B000D7F828219A4200F2E88097F83331072BC9
:1004C00000F2E3800023C7F83431D7F83431C7F89D
:1004D000243197F83331002B12D100F0A7FE0346E8
:1004E000002B0DD10421904800F0BAFE00BF00F0AF
:1004F0009DFE0346002BFAD18A4AD7F818311360C3
:1005000097F83331012B12D100F090FE0346002BF7
:100510000DD10D21854800F0A3FE00BF00F086FE3E
:100520000346002BFAD17F4AD7F81831136097F8A9
:100530003331022B12D100F079FE0346002B0DD18E
:1005400020217B4800F08CFE00BF00F06FFE0346C8
:10055000002BFAD1734AD7F81831136097F833316A
:10056000032B12D100F062FE0346002B0DD10D21AA
:10057000704800F075FE00BF00F058FE0346002BE7
:10058000FAD1684AD7F81831136097F83331042B41
:1005900015D100F04BFE0346002B10D128216648F0
:1005A00000F05EFE00BF00F041FE0346002BFAD1D2
:1005B0005C4AD7F818311360012387F8323197F875
:1005C0003331052B3AD107F1A403642200211846E8
:1005D00000F0B8FE0023C7F83431D7F83431C7F83B
:1005E000243107F14003D7F82C215449184600F074
:1005F00089FE07F140031846FFF7F2FD0346C7F8EE
:10060000103107F12003D7F810214D49184600F0AA
:1006100079FE00F00BFE0346002B0FD107F12003FB
:100620001E21184600F01CFE00BF00F0FFFD03462F
:10063000002BFAD13B4AD7F81831136097F83331C1
:10064000072B22D100F0F2FD0346002B1DD107F14C
:10065000A40364220021184600F074FE0023C7F8AA
:100660003431D7F83431C7F8243107F1400364211D
:10067000184600F0F5FD00BF00F0D8FD0346002B42
:10068000FAD1284AD7F81831136097F83331072B7D
:1006900000F2A58007F58473184600F097FD034625
:1006A000002B36D097F8093103F00103DBB2002BA1
:1006B00031D097F8093103F01003DBB2002B04D0DE
:1006C000D7F83431C7F824313DE097F8093103F009
:1006D0000803DBB2002B35D0D7F83431632B04D9B3
:1006E000D7F83431C7F824312DE0D7F834315A1C0B
:1006F000C7F8342197F8082103F59C733B4403F8AD
:10070000942C07F1A402D7F83431134400221A7054
:1007100019E000BF17E000BF15E000BFAC1C0008E7
:100720006C00002074000020B81C0008C01C0008E9
:10073000D01C0008F41C0008041D0008301D00082F
:10074000641D000800BF07F1A4034349184600F0E8
:100750000EFEC7F82001D7F82031002B19D097F8EA
:100760003331052B15D007F1A4036422002118466C
:1007700000F0E8FD0023C7F83431D7F83431C7F86A
:10078000243197F83331013387F833310023C7F828
:10079000203197F83331052B21D107F1A4033E21F5
:1007A000184600F0D7FDC7F82001D7F82031002BFC
:1007B00015D007F1A40364220021184600F0C2FD01
:1007C0000023C7F83431D7F83431C7F8243197F80B
:1007D0003331023387F833310023C7F8203197F8DB
:1007E0003231012B7FF43CAE1C4B1B6903F4806358
:1007F000002B0CD0194B5B69184A43F0200353615E
:100800000123C7F81C310123C7F82C3108E0134B32
:100810005B69124A23F0200353610023C7F81C319F
:1008200097F83331082B7FF41BAE0D4B1B68D7F8BC
:100830001421D31A43F698229342FFF411AE084ACA
:10084000D7F81431136097F83331043B87F833310C
:100850000023C7F82C3103E6741D00080000024095
:100860007800002080B485B000AF78600CE00023F1
:10087000FB6002E0FB680133FB60FB68B3F5266FA9
:10088000F8DD7B68013B7B607B68002BEFDC00BF01
:1008900000BF1437BD465DF8047B704780B586B055
:1008A00000AF7860144A154BD31A7B617B693B61BA
:1008B000134B1B68002B02D1114B124A1A60104BCC
:1008C0001A687B6813443A699A4207D200F066FDC1
:1008D00003460C221A604FF0FF3309E0084B1B68F7
:1008E000FB60074B1A687B681344054A1360FB687A
:1008F00018461837BD4680BD0000022000040000E5
:100900007C0000200805002080B400AF064BD3F81F
:100910008830054A43F47003C2F8883000BFBD46F2
:100920005DF8047B704700BF00ED00E080B485B047
:1009300000AF504B1B68FB604E4B5B68BB600023F5
:100940007B60FB6803F02003002B36D0BB68DBB272
:100950003B717B7943F001037B717B7943F00803A2
:100960007B71FB6803F00203002B15D0BB68002BE2
:100970000ED17B7943F020037B717B796FF3C30346
:100980007B713C4BDB683B4A23F02003D36003E0E0
:100990007B7943F002037B71FB6803F00103002BBA
:1009A0000BD07B7943F004037B717B7943F0020326
:1009B0007B717B796FF3C3037B71FB6803F01003DA
:1009C000002B0DD07B7943F010037B717B7943F0D2
:1009D00001037B71274BDB68264A43F02003D36079
:1009E0007B7903F00103DBB2002B18D0224B1B688C
:1009F0005A1C21490A6021497A6841F823201E4B7C
:100A00001B683F2B02D91C4B00221A601C4B1B6831
:100A10003F2B04D81A4B1B680133194A1360FB683B
:100A200003F08003002B1ED0164B1B68002B0ED04A
:100A3000154B1B685A1C14490A601B78DAB20D4B1F
:100A40005A60104B1B68013B0E4A13600BE0094BC8
:100A5000DB68084A23F08003D3600A4B00221A6047
:100A6000094B00221A6000BF1437BD465DF8047BB5
:100A7000704700BF00440040880000209400002020
:100A800090000020840000208000002080B500AF8E
:100A9000564B00221A60564B00221A60554B00221A
:100AA0001A604FF480720021534800F04BFC534B06
:100AB0001B6B524A43F001031363514B1B68504AAE
:100AC00023F0300313604E4B1B684D4A43F0200364
:100AD00013604B4B1B684A4A23F0C0031360484B1A
:100AE0001B68474A43F080031360454B5B68444AE8
:100AF00023F004035360424B9B68414A43F03003A8
:100B000093603F4BDB683E4A23F0C003D3603C4B0D
:100B1000DB683B4A43F08003D360394B1B6A384A99
:100B200023F47F431362364B1B6A354A43F4EE438A
:100B30001362324B1B6C314A43F4003313642F4B66
:100B40001B6A2E4A43F4003313622C4B1B6A2B4A58
:100B500023F4003313622B4BDB682A4A23F00C0387
:100B6000D360284BDB68274A43F40053D360254BFE
:100B70009B68244A1B0C1B049360224B9B68214AF0
:100B800043F0230393601F4BDB681E4A23F40043AA
:100B9000D3601C4B1B691B4A23F440531361194B50
:100BA000DB68184A23F48063D360164B1B69154A2F
:100BB00023F400631361134BDB68124A23F4805360
:100BC000D360104B5B690F4A23F4407353610E4BA3
:100BD000302283F826230C4B40225A60094BDB68F5
:100BE000084A43F03C03D36000BF80BD880000206A
:100BF0008C0000209000002094000020003802406B
:100C0000000002400044004000E100E080B485B0F4
:100C100000AF504B1B68FB604E4B5B68BB60002312
:100C20007B60FB6803F02003002B36D0BB68DBB28F
:100C30003B717B7943F001037B717B7943F00803BF
:100C40007B71FB6803F00203002B15D0BB68002BFF
:100C50000ED17B7943F020037B717B796FF3C30363
:100C60007B713C4BDB683B4A23F02003D36003E0FD
:100C70007B7943F002037B71FB6803F00103002BD7
:100C80000BD07B7943F004037B717B7943F0020343
:100C90007B717B796FF3C3037B71FB6803F01003F7
:100CA000002B0DD07B7943F010037B717B7943F0EF
:100CB00001037B71274BDB68264A43F02003D36096
:100CC0007B7903F00103DBB2002B18D0224B1B68A9
:100CD0005A1C21490A6021497A6841F823201E4B99
:100CE0001B683F2B02D91C4B00221A601C4B1B684F
:100CF0003F2B04D81A4B1B680133194A1360FB6859
:100D000003F08003002B1ED0164B1B68002B0ED067
:100D1000154B1B685A1C14490A601B78DAB20D4B3C
:100D20005A60104B1B68013B0E4A13600BE0094BE5
:100D3000DB68084A23F08003D3600A4B00221A6064
:100D4000094B00221A6000BF1437BD465DF8047BD2
:100D5000704700BF001001409C010020A801002046
:100D6000A4010020980100209401002080B500AF6C
:100D7000564B00221A60564B00221A60554B002237
:100D80001A604FF480720021534800F0DBFA534B95
:100D90001B6B524A43F001031363514B1B68504ACB
:100DA00023F4401313604E4B1B684D4A43F4001369
:100DB00013604B4B1B684A4A23F440231360484B93
:100DC0001B68474A43F400231360454B5B68444A61
:100DD00023F400735360424B9B68414A43F4402321
:100DE00093603F4BDB683E4A23F44013D3603C4B97
:100DF000DB683B4A43F40013D360394B5B6A384AE3
:100E000023F47F635362364B5B6A354A43F4EE63E7
:100E10005362324B5B6C314A43F0100353642F4BE7
:100E20005B6A2E4A43F0100353622C4B5B6A2B4AD9
:100E300023F0100353622B4BDB682A4A23F00C0388
:100E4000D360284BDB68274A43F40053D360254B1B
:100E50009B68244A1B0C1B049360224B9B68214A0D
:100E600043F03F0393601F4BDB681E4A23F40043AB
:100E7000D3601C4B1B691B4A23F440531361194B6D
:100E8000DB68184A23F48063D360164B1B69154A4C
:100E900023F400631361134BDB68124A23F480537D
:100EA000D360104B5B690F4A23F4407353610E4BC0
:100EB000302283F825230C4B20225A60094BDB6833
:100EC000084A43F03C03D36000BF80BD9C01002072
:100ED000A0010020A4010020A80100200038024049
:100EE000000002400010014000E100E080B485B045
:100EF00000AF504B1B68FB604E4B5B68BB60002330
:100F00007B60FB6803F02003002B36D0BB68DBB2AC
:100F10003B717B7943F001037B717B7943F00803DC
:100F20007B71FB6803F00203002B15D0BB68002B1C
:100F30000ED17B7943F020037B717B796FF3C30380
:100F40007B713C4BDB683B4A23F02003D36003E01A
:100F50007B7943F002037B71FB6803F00103002BF4
:100F60000BD07B7943F004037B717B7943F0020360
:100F70007B717B796FF3C3037B71FB6803F0100314
:100F8000002B0DD07B7943F010037B717B7943F00C
:100F900001037B71274BDB68264A43F02003D360B3
:100FA0007B7903F00103DBB2002B18D0224B1B68C6
:100FB0005A1C21490A6021497A6841F823201E4BB6
:100FC0001B683F2B02D91C4B00221A601C4B1B686C
:100FD0003F2B04D81A4B1B680133194A1360FB6876
:100FE00003F08003002B1ED0164B1B68002B0ED085
:100FF000154B1B685A1C14490A601B78DAB20D4B5A
:101000005A60104B1B68013B0E4A13600BE0094B02
:10101000DB68084A23F08003D3600A4B00221A6081
:10102000094B00221A6000BF1437BD465DF8047BEF
:10103000704700BF00140140B0020020BC02002035
:10104000B8020020AC020020A802002080B500AF4A
:10105000564B00221A60564B00221A60554B002254
:101060001A604FF480720021534800F06BF9534B23
:101070001B6B524A43F001031363514B1B68504AE8
:1010800023F4400313604E4B1B684D4A43F40003A6
:1010900013604B4B1B684A4A23F040731360484B64
:1010A0001B68474A43F000731360454B5B68444A32
:1010B00023F400635360424B9B68414A43F440036E
:1010C00093603F4BDB683E4A23F04073D3603C4B58
:1010D000DB683B4A43F00073D360394B5B6A384AA4
:1010E00023F47F235362364B5B6A354A43F408236B
:1010F0005362324B5B6C314A43F0200353642F4BF5
:101100005B6A2E4A43F0200353622C4B5B6A2B4AE6
:1011100023F0200353622B4BDB682A4A23F00C0395
:10112000D360284BDB68274A43F40053D360254B38
:101130009B68244A1B0C1B049360224B9B68214A2A
:1011400043F08B0393601F4BDB681E4A23F400437C
:10115000D3601C4B1B691B4A23F440531361194B8A
:10116000DB68184A23F48063D360164B1B69154A69
:1011700023F400631361134BDB68124A23F480539A
:10118000D360104B5B690F4A23F4407353610E4BDD
:10119000302283F847230C4B80229A60094BDB688E
:1011A000084A43F03C03D36000BF80BDB00200207A
:1011B000B4020020B8020020BC0200200038024027
:1011C000000002400014014000E100E080B483B060
:1011D00000AF7860124B1B68002B1AD07B68002B85
:1011E00017D0104B1B685A1C0E490A607A680E49CA
:1011F00051F8233013600A4B1B68013B084A136007
:10120000084B1B683F2B02D9064B00221A600123B2
:1012100000E0002318460C37BD465DF8047B70479C
:10122000B8020020B4020020BC02002080B400AF4D
:10123000094B1B68002B03D1084B1B68002B01D006
:10124000012300E0002303F00103DBB21846BD4692
:101250005DF8047B704700BFA8020020AC020020AC
:1012600080B483B000AF786039600E4B1B68002BF0
:1012700003D10D4B1B68002B01D000230CE0094A61
:101280007B681360084A3B681360084BDB68074AB9
:1012900043F08003D360012318460C37BD465DF848
:1012A000047B7047A8020020AC020020001401401B
:1012B000DFF834D00D480E490E4A002302E0D4581E
:1012C000C4500433C4188C42F9D30B4A0B4C00238E
:1012D00001E013600432A242FBD3FFF715FB00F0DC
:1012E00063F8FFF769F87047000002200000002053
:1012F00050000020B41D000850000020040500200C
:10130000FEE700000EB400B59CB01DAB0290069045
:101310006FF00041094807910491094953F8042BE3
:1013200005910068019302A900F0B6F9029B002222
:101330001A701CB05DF804EB03B070474C0000203D
:101340000802FFFF02440346934200D1704703F8AE
:10135000011BF9E7C9B2034610F8012B1AB18A4202
:10136000F9D118467047002918BF0023F9E70A7819
:1013700070B56AB970BD9A4209D10C46054614F899
:10138000013F002BF6D015F8016F9E42F7D00130D7
:101390000378002BEFD11846ECE70000014B1868EA
:1013A000704700BF4C00002070B50D4D0D4C641B04
:1013B000A4100026A64209D10B4D0C4C00F06AFC8B
:1013C000641BA4100026A64205D170BD55F8043B4D
:1013D00098470136EEE755F8043B98470136F2E7A7
:1013E000AC1D0008AC1D0008AC1D0008B01D0008B5
:1013F0007047704737B5002944D051F8043C01903C
:10140000002BA1F10404B8BFE41800F0DFF81E4A75
:101410000198136833B96360146003B0BDE83040CD
:1014200000F0DAB8A34208D9256861198B4201BFE0
:1014300019685B6849192160EDE71A465B680BB1D2
:10144000A342FAD911685518A5420BD1246821444A
:101450005418A3421160E0D11C685B6853600C44CF
:101460001460DAE702D90C230360D6E72568611916
:101470008B4204BF19685B68636004BF491921602F
:101480005460CAE703B030BDFC04002070B50E4EB6
:101490000C463168054611B900F0A6FB30602146C4
:1014A000284600F0A1FB431C0AD0C41C24F003040E
:1014B000A04207D0211A284600F096FB013001D146
:1014C0004FF0FF34204670BD000500202DE9F843A1
:1014D000CD1C25F0030508350C2D38BF0C25002D3B
:1014E000074601DBA94205D90C233B6000263046A4
:1014F000BDE8F883DFF8D08000F068F8D8F8003055
:101500001C465CBB29463846FFF7C0FF431C044617
:1015100055D1D8F800402646002E45D1002C48D0A1
:1015200023683146384604EB030900F05DFB814532
:101530003FD121686D1A29463846FFF7A7FF0130D1
:1015400037D023682B442360D8F80030002B38D0E4
:101550005A68A2422BD100225A600FE02268521B27
:101560001FD40B2A17D96119A342256018BF5960EF
:10157000636808BFC8F8001062514B60384604F138
:101580000B0600F029F826F00706231DF21AAED04C
:101590009B1BA350ABE7A3426268DDD1C8F80020D3
:1015A000ECE723466468ACE734467668B4E7134654
:1015B000CCE70C233B60384600F00EF897E7256037
:1015C000DCE75B60FFDE00BFFC0400200148FFF7A2
:1015D0000FBF00BFF80400200148FFF70ABF00BF9B
:1015E000F80400202DE9F0478E681F46BE420B68C4
:1015F00082460C4690462CD88A8912F4906F26D0E9
:101600006569096905EB4505A3EB010905EBD5758E
:101610007B1C4B446D109D4238BF1D46530527D59A
:101620002946FFF753FF064660B321694A4600F09A
:10163000EBFAA38923F4906343F08003A38126612E
:1016400065614E44A5EB09052660A5603E46BE4295
:1016500000D93E4620683246414600F0ABFAA36806
:101660009B1BA3602368334423600020BDE8F08700
:101670002A4600F0D7FA06460028E0D121695046F4
:10168000FFF7B8FE0C23CAF80030A38943F04003EB
:10169000A3814FF0FF30E9E72DE9F04F98468B89A1
:1016A0001B069DB007460D4614460ED50B6963B95F
:1016B0004021FFF70BFF2860286120B90C233B6015
:1016C0004FF0FF30D0E040236B61002309932023CB
:1016D0008DF82930CDF80C803023DFF8A4818DF807
:1016E0002A304FF0010923469A4613F8012B0AB11C
:1016F000252AF9D1BAEB040B0BD05B4622462946CA
:101700003846FFF76FFF013000F0A980099A5A446C
:1017100009929AF80030002B00F0A18000234FF0CE
:10172000FF32CDE905230AF1010A049307938DF8EE
:1017300053301A935446052214F8011B5048FEF703
:1017400057FD049AD8B9D00644BF20238DF85330F2
:10175000110744BF2B238DF853309AF800302A2B01
:1017600015D0079A544600204FF00A0C214611F874
:10177000013B303B092B4DD9B0B1079214E0A0EBEF
:10178000080309FA03F313430493A246D2E7039B29
:10179000191D1B680391002BBBBF5B4242F0020284
:1017A00007930793B8BF049223782E2B0CD163784C
:1017B0002A2B34D1039B1A1D1B680392002BB8BF40
:1017C0004FF0FF3302340593DFF8C4A021780322E1
:1017D0005046FEF70DFD38B1049BA0EB0A004022F5
:1017E000824013430134049314F8011B25488DF8FB
:1017F00028100622FEF7FCFC002838D0224B1BBB29
:10180000039B073323F0070308330393099B3344F7
:10181000099368E70CFB02320C460120A6E700237F
:101820000134059319464FF00A0C204610F8012B9D
:10183000303A092A03D9002BC6D00591C4E70CFB26
:10184000012104460123F0E703AB00932A460F4B26
:1018500004A93846AFF30080421C0646D6D1AB89B6
:101860005B063FF52DAF09981DB0BDE8F08F03ABC7
:1018700000932A46054B04A9384600F079F8EBE7B7
:10188000771D0008811D000800000000E515000814
:101890007D1D00082DE9F047164699468A680B69B8
:1018A000DDF820809342B8BF1346336091F843209F
:1018B00007460C460AB1013333602368990642BFDC
:1018C000336802333360256815F0060506D104F14C
:1018D000190AE36832689B1AAB4226DC94F843206D
:1018E000131E226818BF012392062BD404F1430271
:1018F00049463846C04701301ED02368226903F0AC
:101900000603042B02BFE5683368ED1AA3680CBF19
:1019100025EAE57500259342C4BF9B1AED18002601
:101920001A34B5421AD1002008E001235246494634
:101930003846C047013003D14FF0FF30BDE8F08793
:101940000135C6E7E1185A1C302081F843002244D3
:1019500094F8451082F843100233C7E7012322466A
:1019600049463846C0470130E6D00136D9E7000085
:101970002DE9FF470F7E0C9D782F914680460C463F
:101980009A4601F1430207D8622F0AD8002F00F0CF
:10199000D480582F00F0C08004F1420584F84270D2
:1019A0003AE0A7F16303152BF6D801A151F823F013
:1019B000091A00081D1A0008991900089919000849
:1019C00099190008991900081D1A000899190008AA
:1019D000991900089919000899190008211B000895
:1019E000491A0008DB1A000899190008991900081B
:1019F000431B000899190008491A000899190008A2
:101A000099190008E31A00082B681A1D1B682A6040
:101A100004F1420584F8423001239FE020682B68DE
:101A2000070603F10401296001D51E6803E046069C
:101A3000FBD5B3F90060002E03DA2D23764284F83B
:101A400043305A480A2312E02B682068191D296088
:101A5000050601D51E6802E04106FBD51E885348E5
:101A60006F2F0CBF08230A23002184F843106568F8
:101A7000A560002DA2BF216821F0040121600EB9EC
:101A8000002D4BD01546B6FBF3F103FB1167C75D84
:101A900005F8017D3746BB420E46F4D9082B0BD121
:101AA0002368DE0708D5236961689942DEBF3023C9
:101AB00005F8013C05F1FF35521B2261CDF800A06D
:101AC0004B4603AA21464046FFF7E4FE01304AD1C7
:101AD0004FF0FF3004B0BDE8F087236843F02003E7
:101AE00023603348782784F84570236829681F06E7
:101AF00051F8046B02D45F0648BFB6B2DF0748BF97
:101B000043F02003296048BF23601EB9236823F0F7
:101B1000200323601023A7E72448E4E71546BDE728
:101B20002B6826686169181D286035061B6801D579
:101B3000196002E07006FBD5198000232361154669
:101B4000BCE72B681A1D2A601D68626800212846C0
:101B5000FEF74EFB08B1401B606063682361002301
:101B600084F84330AAE723692A4649464046D047CD
:101B70000130ADD023689B0713D4E068039B9842E3
:101B8000B8BF1846A6E70123324649464046D0472B
:101B900001309DD00135E36803995B1AAB42F2DC5A
:101BA000EBE7002504F11906F5E700BF881D0008E2
:101BB000991D0008884210B501EB020402D9844245
:101BC000234607D8431EA14208D011F8012B03F881
:101BD000012FF8E7024401468A4200D110BD13F8F4
:101BE000014D02F8014DF7E738B5064D00230446D4
:101BF00008462B60FEF752FE431C02D12B6803B14E
:101C0000236038BDF40400200A44914200F1FF3300
:101C100000D1704710B511F8014B03F8014F914204
:101C2000F9D110BD2DE9F041804614460E4621B988
:101C3000BDE8F0411146FFF749BC2AB9FFF7DAFBCE
:101C400025462846BDE8F08100F01BF8844207468F
:101C500002D8B4EB500F12D821464046FFF736FCAD
:101C600005460028EDD0BC422246314628BF3A4600
:101C7000FFF7CAFF31464046FFF7BCFBE1E73546B8
:101C8000DFE751F8043C181F002BBCBF0B58C018ED
:101C900070470000F8B500BFF8BC08BC9E4670470E
:0C1CA000F8B500BFF8BC08BC9E467047B9
:101CAC0041542B5253540D0A0000000041540D0AAC
:101CBC000000000041542B43574D4F44453D310D1E
:101CCC000A00000041542B43574A41503D224A52CE
:101CDC0053222C224A61724A6172506C6179735999
:101CEC0054220D0A0000000041542B4349504D551D
:101CFC00583D300D0A00000041542B4349505354B9
:101D0C004152543D22544350222C223138342E312E
:101D1C0030362E3135332E313439222C38300D0AF1
:101D2C0000000000474554202F7570646174653FB6
:101D3C006170695F6B65793D334232455951365557
:101D4C003042583632484553266669656C64313DDD
:101D5C0025640D0A0000000041542B4349505345A3
:101D6C004E443D25640D0A004F4B00232D302B2093
:101D7C0000686C4C0065666745464700303132336D
:101D8C0034353637383941424344454600303132D8
:101D9C003334353637383961626364656600000068
:041DAC00C501000865
:041DB000A101000885
:101DB40000000000BC030020240400208C04002048
:101DC400000000000000000000000000000000000F
:101DD40000000000000000000000000000000000FF
:101DE40000000000000000000000000000000000EF
:101DF40000000000000000000000000000000020BF
:04000005080012B12C
:00000001FF
