:020000040800F2
:1000000000000220291C0008791C0008791C000847
:10001000791C0008791C0008791C00080000000009
:10002000000000000000000000000000791C000833
:10003000791C000800000000791C00088D0C0008E5
:10004000791C0008791C0008791C0008791C00083C
:10005000791C0008791C0008791C0008791C00082C
:10006000791C0008791C0008791C0008791C00081C
:10007000791C0008791C0008791C0008791C00080C
:10008000791C0008791C0008791C00080000000099
:10009000000000000000000000000000791C0008C3
:1000A000791C0008791C0008791C0008791C0008DC
:1000B000791C0008791C0008791C0008791C0008CC
:1000C000791C0008791C0008791C0008791C0008BC
:1000D000791C000805170008A5150008000000009D
:1000E000590C0008791C0008791C00080000000069
:1000F000000000000000000000000000791C000863
:1001000000000000791C0008791C0008791C000818
:1001100000000000000000000000000000000000DF
:10012000791C0008791C0008791C0008791C00085B
:10013000791C000800000000000000000000000022
:10014000000000000000000000000000791C000812
:10015000791C0008791C0008791C00086518000843
:10016000791C0008791C0008000000000000000055
:10017000000000000000000000000000000000007F
:1001800000000000791C00080000000000000000D2
:08019000791C0008791C00082D
:1001A00010B5054C237833B9044B13B10448AFF3B1
:1001B00000800123237010BD6000002000000000BB
:1001C0002C3A000808B5034B1BB103490348AFF3B1
:1001D000008008BD00000000640000202C3A0008E8
:1001E000034613F8012B002AFBD1181A0138704777
:1001F00001F0FF01102A2BDB10F0070F08D010F8D8
:10020000013B013A8B422DD010F0070F42B3F6D1DB
:10021000F0B441EA012141EA014122F007047FF0F4
:1002200000070023F0E80256083C85EA010586EA4B
:10023000010685FA47F5A3FA87F586FA47F6A5FA87
:1002400087F68EB9EED1F0BC01F0FF0102F0070293
:1002500032B110F8013B013A83EA010313B1F8D13E
:100260000020704701387047002D06BF354603381F
:10027000073815F0010F07D1013015F4807F02BF58
:10028000013015F4C03F0130F0BC0138704700BFA9
:1002900081F0004102E000BF83F0004330B54FEA37
:1002A00041044FEA430594EA050F08BF90EA020FA4
:1002B0001FBF54EA000C55EA020C7FEA645C7FEA37
:1002C000655C00F0E2804FEA5454D4EB5555B8BF5A
:1002D0006D420CDD2C4480EA020281EA030382EACB
:1002E000000083EA010180EA020281EA0303362D5D
:1002F00088BF30BD11F0004F4FEA01314FF4801C30
:100300004CEA113102D0404261EB410113F0004F41
:100310004FEA03334CEA133302D0524263EB4303F8
:1003200094EA050F00F0A780A4F10104D5F1200E96
:100330000DDB02FA0EFC22FA05F2801841F10001F1
:1003400003FA0EF2801843FA05F359410EE0A5F1C5
:1003500020050EF1200E012A03FA0EFC28BF4CF0F6
:10036000020C43FA05F3C01851EBE37101F00045AC
:1003700007D54FF0000EDCF1000C7EEB00006EEBB9
:100380000101B1F5801F1BD3B1F5001F0CD3490843
:100390005FEA30004FEA3C0C04F101044FEA44529A
:1003A00012F5800F80F09A80BCF1004F08BF5FEA21
:1003B000500C50F1000041EB045141EA050130BD01
:1003C0005FEA4C0C404141EB0101013C28BFB1F513
:1003D000801FE9D291F0000F04BF01460020B1FA5E
:1003E00081F308BF2033A3F10B03B3F120020CDA31
:1003F0000C3208DD02F1140CC2F10C0201FA0CF00F
:1004000021FA02F10CE002F11402D8BFC2F1200C73
:1004100001FA02F120FA0CFCDCBF41EA0C01904029
:10042000E41AA2BF01EB0451294330BD6FEA040472
:100430001F3C1CDA0C340EDC04F11404C4F120025D
:1004400020FA04F001FA02F340EA030021FA04F36F
:1004500045EA030130BDC4F10C04C4F1200220FAC6
:1004600002F001FA04F340EA0300294630BD21FA04
:1004700004F0294630BD94F0000F83F4801306BFCA
:1004800081F480110134013D4EE77FEA645C18BFBE
:100490007FEA655C29D094EA050F08BF90EA020F55
:1004A00005D054EA000C04BF1946104630BD91EA4D
:1004B000030F1EBF0021002030BD5FEA545C05D150
:1004C0004000494128BF41F0004130BD14F580048F
:1004D0003CBF01F5801130BD01F0004545F0FE4103
:1004E00041F470014FF0000030BD7FEA645C1ABF38
:1004F000194610467FEA655C1CBF0B46024650EA6F
:10050000013406BF52EA033591EA030F41F400219A
:1005100030BD00BF90F0000F04BF0021704730B520
:100520004FF4806404F132044FF000054FF00001F5
:1005300050E700BF90F0000F04BF0021704730B5B6
:100540004FF4806404F1320410F0004548BF40428B
:100550004FF000013EE700BF42004FEAE2014FEAE0
:1005600031014FEA02701FBF12F07F4393F07F4FBB
:1005700081F06051704732F07F4208BF704793F0BE
:100580007F4F04BF41F40021704730B54FF46074D1
:1005900001F0004521F000411CE700BF50EA0102D4
:1005A00008BF704730B54FF000050AE050EA01027D
:1005B00008BF704730B511F0004502D5404261EBED
:1005C00041014FF4806404F132045FEA915C3FF42E
:1005D000D8AE4FF003025FEADC0C18BF03325FEACB
:1005E000DC0C18BF033202EBDC02C2F1200300FA7C
:1005F00003FC20FA02F001FA03FE40EA0E0021FAA1
:1006000002F11444BDE600BF70B54FF0FF0C4CF48E
:10061000E06C1CEA11541DBF1CEA135594EA0C0F40
:1006200095EA0C0F00F0DEF82C4481EA030621EA7B
:100630004C5123EA4C5350EA013518BF52EA0335B6
:1006400041F4801143F4801338D0A0FB02CE4FF068
:100650000005E1FB02E506F00042E0FB03E54FF098
:100660000006E1FB03569CF0000F18BF4EF0010E90
:10067000A4F1FF04B6F5007F64F5407404D25FEA8C
:100680004E0E6D4146EB060642EAC62141EA55513F
:100690004FEAC52040EA5E504FEACE2EB4F1FD0C81
:1006A00088BFBCF5E06F1ED8BEF1004F08BF5FEAFF
:1006B000500E50F1000041EB045170BD06F00046B1
:1006C00046EA010140EA020081EA0301B4EB5C045E
:1006D000C2BFD4EB0C0541EA045170BD41F4801156
:1006E0004FF0000E013C00F3AB8014F1360FDEBF7B
:1006F000002001F0004170BDC4F10004203C35DA57
:100700000C341BDC04F11404C4F1200500FA05F3D9
:1007100020FA04F001FA05F240EA020001F000427A
:1007200021F0004110EBD37021FA04F642EB0601F0
:100730005EEA430E08BF20EAD37070BDC4F10C041A
:10074000C4F1200500FA04F320FA05F001FA04F2DE
:1007500040EA020001F0004110EBD37041F10001CA
:100760005EEA430E08BF20EAD37070BDC4F12005D5
:1007700000FA05F24EEA020E20FA04F301FA05F23D
:1007800043EA020321FA04F001F0004121FA04F2E5
:1007900020EA020000EBD3705EEA430E08BF20EAB5
:1007A000D37070BD94F0000F0FD101F000464000EF
:1007B00041EB010111F4801F08BF013CF7D041EA71
:1007C000060195F0000F18BF704703F00046520075
:1007D00043EB030313F4801F08BF013DF7D043EA46
:1007E0000603704794EA0C0F0CEA135518BF95EAFC
:1007F0000C0F0CD050EA410618BF52EA4306D1D183
:1008000081EA030101F000414FF0000070BD50EAA1
:10081000410606BF1046194652EA430619D094EA2B
:100820000C0F02D150EA013613D195EA0C0F05D115
:1008300052EA03361CBF104619460AD181EA030169
:1008400001F0004141F0FE4141F470014FF0000021
:1008500070BD41F0FE4141F4780170BD70B54FF0BC
:10086000FF0C4CF4E06C1CEA11541DBF1CEA13553C
:1008700094EA0C0F95EA0C0F00F0A7F8A4EB05041E
:1008800081EA030E52EA03354FEA013100F0888015
:100890004FEA03334FF0805545EA131343EA1263DE
:1008A0004FEA022245EA111545EA10654FEA002693
:1008B0000EF000419D4208BF964244F1FD0404F54C
:1008C000407402D25B084FEA3202B61A65EB0305A8
:1008D0005B084FEA32024FF480104FF4002CB6EB65
:1008E000020E75EB030E22BFB61A754640EA0C00E5
:1008F0005B084FEA3202B6EB020E75EB030E22BF25
:10090000B61A754640EA5C005B084FEA3202B6EB65
:10091000020E75EB030E22BFB61A754640EA9C0024
:100920005B084FEA3202B6EB020E75EB030E22BFF4
:10093000B61A754640EADC0055EA060E18D04FEAB2
:10094000051545EA16754FEA06164FEAC30343EA52
:1009500052734FEAC2025FEA1C1CC0D111F4801F1F
:100960000BD141EA00014FF000004FF0004CB6E718
:1009700011F4801F04BF01430020B4F1FD0C88BFB7
:10098000BCF5E06F3FF6AFAEB5EB030C04BFB6EBC2
:10099000020C5FEA500C50F1000041EB045170BDB5
:1009A0000EF0004E4EEA113114EB5C04C2BFD4EBE2
:1009B0000C0541EA045170BD41F480114FF0000E66
:1009C000013C90E645EA060E8DE60CEA135594EAE2
:1009D0000C0F08BF95EA0C0F3FF43BAF94EA0C0FE5
:1009E0000AD150EA01347FF434AF95EA0C0F7FF45A
:1009F00025AF104619462CE795EA0C0F06D152EAAE
:100A000003353FF4FDAE1046194622E750EA410691
:100A100018BF52EA43067FF4C5AE50EA41047FF4A2
:100A20000DAF52EA43057FF4EBAE12E74FF0FF3C07
:100A300006E000BF4FF0010C02E000BF4FF0010CD8
:100A40004DF804CD4FEA410C7FEA6C5C4FEA430C51
:100A500018BF7FEA6C5C1BD001B050EA410C0CBFA0
:100A600052EA430C91EA030F02BF90EA020F002002
:100A7000704710F1000F91EA030F58BF994208BF69
:100A800090422CBFD8176FEAE37040F00100704726
:100A90004FEA410C7FEA6C5C02D150EA013C07D17D
:100AA0004FEA430C7FEA6C5CD6D152EA033CD3D0C8
:100AB0005DF8040B704700BF8446104662468C46C2
:100AC0001946634600E000BF01B5FFF7B7FF0028F5
:100AD00048BF10F1000F01BD4DF808EDFFF7F4FF1E
:100AE0000CBF012000205DF808FB00BF4DF808EDA9
:100AF000FFF7EAFF34BF012000205DF808FB00BFCC
:100B00004DF808EDFFF7E0FF94BF012000205DF8ED
:100B100008FB00BF4DF808EDFFF7CEFF94BF0120A2
:100B200000205DF808FB00BF4DF808EDFFF7C4FF9B
:100B300034BF012000205DF808FB00BF4FEA410CE4
:100B40007FEA6C5C02D150EA013C0AD14FEA430CC7
:100B50007FEA6C5C02D152EA033C02D14FF0000004
:100B600070474FF0010070474FEA410212F5001242
:100B700015D211D56FF47873B3EB625212D94FEAE4
:100B8000C12343F0004343EA505311F0004F23FACE
:100B900002F018BF404270474FF00000704750EA23
:100BA000013005D111F0004008BF6FF000407047E0
:100BB0004FF00000704700BF4FEA4102B2F1E0433E
:100BC00024BFB3F5001CDCF1FE5C0DD901F0004C34
:100BD0004FEAC0024CEA5070B2F1004F40EB830084
:100BE00008BF20F00100704711F0804F21D113F1B0
:100BF0003872BCBF01F00040704741F480114FEAE9
:100C00005252C2F11802C2F1200C10FA0CF320FA71
:100C100002F018BF40F001004FEAC1234FEAD3238E
:100C200003FA0CFC40EA0C0023FA02F34FEA4303F8
:100C3000CCE77FEA625307D150EA01331EBF4FF081
:100C4000FE4040F44000704701F0004040F0FE409C
:100C500040F40000704700BF80B400AF084B1B6930
:100C600003F40053002B02D1064B01221A60064BFD
:100C70004FF400525A6100BFBD465DF8047B7047D7
:100C8000000802407C000020003C014080B400AF1E
:100C9000064B5B680133054A5360054B00229A609E
:100CA00000BFBD465DF8047B704700BF7C0000209C
:100CB00010E000E080B500AF0E4B44F61F625A60B2
:100CC0000C4B00229A600B4B1B680A4A23F004036A
:100CD0001360084B1B68074A23F480331360054BED
:100CE0001B68044A43F00303136000F06BFE00BF6F
:100CF00080BD00BF10E000E080B400AF174B1B6B5D
:100D0000164A43F001031363154B1B68144A43F062
:100D100008031360124B1B68114A43F0040313606D
:100D20000F4B1B680E4A23F4003313600C4B1B68F7
:100D30000B4A43F480331360094B5B68084A23F481
:100D400080735360064B5B69054A43F480735361BB
:100D500000BFBD465DF8047B704700BF003802400D
:100D60000000024080B400AF384B5B6C374A43F45C
:100D700080735364364B5B68354A23F48033536089
:100D8000334B5B68324A23F400335360314B5B686A
:100D9000304A23F0007353602E4B5B682D4A23F0DA
:100DA000807353602B4B5B682A4A43F48073536013
:100DB000284B5B68274A43F020035360254B1B698F
:100DC000244A23F020031361224B1B69214A23F09C
:100DD000100313611F4B1B691E4A43F00803136184
:100DE0001C4B9B681B4A23F480639360194B9B68E0
:100DF000184A23F400639360164BDB6A154A23F408
:100E00000003D362134BDB6A124A23F48003D362DC
:100E1000104BDB6A0F4A23F40013D3620D4BDB6ADD
:100E20000C4A23F48013D3620A4B5B6B094A43F0EC
:100E300001035363074B9B68064A43F00203936028
:100E400000BFBD465DF8047B704700BF003802401C
:100E5000002301400020014080B500AF054B9B6896
:100E6000044A43F001039360012000F037FB00BF08
:100E700080BD00BF0020014080B400AF054B9B68DF
:100E8000044A43F08043936000BFBD465DF8047B95
:100E9000704700BF0020014080B400AF00BF064B88
:100EA0001B6803F00203002BF9D000BF00BFBD4652
:100EB0005DF8047B704700BF0020014080B400AFA4
:100EC000034BDB6C1846BD465DF8047B704700BFE2
:100ED0000020014080B483B000AF78607B68B3F538
:100EE000967F06DB094B5B69084A23F480735361E4
:100EF00005E0064B5B69054A43F48073536100BF0C
:100F00000C37BD465DF8047B704700BF000002400F
:100F100080B586B000AF78607B6807EE903AB8EE97
:100F2000E77ADFED356AC7EE267AB1EE047A67EE2E
:100F3000877AC7ED057AB1EE047AD7ED057A77EEB8
:100F4000676A97ED057AC6EE877AC7ED047A386945
:100F5000FFF702FB20A3D3E90023FFF77FFC024643
:100F60000B4610461946FFF727FE0346FB60F8685C
:100F7000FFF7F2FA02460B4643EC102B01F048FB58
:100F800051EC100B16A3D3E90023FFF785F90246B5
:100F90000B461046194614A3D3E90023FFF75EFC65
:100FA00002460B4643EC172BB0EE471AF0EE671AD9
:100FB0009FED0F0B01F06AFB53EC102B1046194606
:100FC000FFF7FAFD0346BB60BB6807EE903AB0EE50
:100FD000670A1837BD4680BDB0726891ED7C054048
:100FE000589FB267BDE2F93FC130472CB560DCBF06
:100FF000000000000000244000F07F4580B5CEB026
:1010000000AF0023C7F834310023C7F82431002390
:10101000C7F82031002387F83331002387F83231B5
:1010200000237B6407F1480360220021184600F08A
:1010300045FE07F59C73A3F58A7300221A600433FA
:1010400000221A605A609A60DA601A615A611A8343
:1010500007F59C73A3F59A7300221A6004330022EB
:101060001A605A609A60DA601A615A611A83FFF74F
:1010700043FEFFF777FEFFF71DFE00F093FD0346EA
:10108000002B0DD10821BC4800F0A6FD00BF00F0E8
:1010900089FD0346002BFAD141F2883000F01EFA98
:1010A000B64B5A6813469B0013445B00C7F81C31CB
:1010B000B24B5A6813469B0013445B00C7F81831C3
:1010C00041F28833C7F8283197F83331052B03D024
:1010D00097F83331072B06D14FF4FA62D7F828314D
:1010E0001344C7F82831A64B1B68D7F81C21D31A24
:1010F000D7F828219A4200F2F78097F83331072B6E
:1011000000F2F2800023C7F83431D7F83431C7F841
:10111000243197F83331002B12D100F043FD034600
:10112000002B0DD10421974800F056FD00BF00F0C0
:1011300039FD0346002BFAD1914AD7F81C311360D0
:1011400097F83331012B12D100F02CFD0346002B10
:101150000DD10D218C4800F03FFD00BF00F022FDB5
:101160000346002BFAD1864AD7F81C31136097F852
:101170003331022B12D100F015FD0346002B0DD1A7
:101180002421824800F028FD00BF00F00BFD03463B
:10119000002BFAD17A4AD7F81C31136097F8333113
:1011A000032B12D100F0FEFC0346002B0DD10D21C4
:1011B000774800F011FD00BF00F0F4FC0346002B5F
:1011C000FAD16F4AD7F81C31136097F83331042BEA
:1011D00015D100F0E7FC0346002B10D128216D4803
:1011E00000F0FAFC00BF00F0DDFC0346002BFAD152
:1011F000634AD7F81C311360012387F8323197F81E
:101200003331052B49D107F1A80364220021184688
:1012100000F054FD0023C7F83431D7F83431C7F853
:101220002431D7F82C01FFF797F902460B4643EC1F
:10123000102B01F0B1FA53EC102B10461946FFF7B2
:1012400093FC024607F144035349184600F016FD8B
:1012500007F144031846FEF7C3FF0346C7F81431ED
:1012600007F12403D7F814214C49184600F006FD75
:1012700000F098FC0346002B0FD107F124031E2138
:10128000184600F0A9FC00BF00F08CFC0346002BC0
:10129000FAD13B4AD7F81C31136097F83331072B4A
:1012A00022D100F07FFC0346002B1DD107F1A803DB
:1012B00064220021184600F001FD0023C7F83431F4
:1012C000D7F83431C7F8243107F1440364211846B4
:1012D00000F082FC00BF00F065FC0346002BFAD151
:1012E000274AD7F81C31136097F83331072B00F2E7
:1012F000A48007F58673184600F024FC0346002BF3
:1013000036D097F80D3103F00103DBB2002B31D05A
:1013100097F80D3103F01003DBB2002B04D0D7F89F
:101320003431C7F824313CE097F80D3103F008035D
:10133000DBB2002B34D0D7F83431632B04D9D7F883
:101340003431C7F824312CE0D7F834315A1CC7F8AF
:10135000342197F80C2103F59C733B4403F8902C3F
:1013600007F1A802D7F83431134400221A7018E0AC
:1013700000BF16E000BF14E0483A00087C000020DF
:1013800088000020543A00085C3A00086C3A0008D3
:10139000943A0008A43A0008D03A0008043B000838
:1013A00000BF07F1A8034A49184600F09CFCC7F8A3
:1013B0002001D7F82031002B19D097F83331052BB5
:1013C00015D007F1A80364220021184600F076FC2E
:1013D0000023C7F83431D7F83431C7F8243197F8EF
:1013E0003331013387F833310023C7F8203197F8C0
:1013F0003331052B21D107F1A8033E21184600F017
:1014000065FCC7F82001D7F82031002B15D007F173
:10141000A80364220021184600F050FC0023C7F8FE
:101420003431D7F83431C7F8243197F833310233E7
:1014300087F833310023C7F8203197F83231012B78
:101440007FF42EAEFFF708FDFFF716FDFFF724FD32
:10145000FFF734FD03469AB21E4B1A801D4B1B88C2
:101460001846FFF755FD10EE103A1846FFF774F8CE
:1014700002460B4643EC102B01F08EF953EC102B77
:1014800010461946FFF798FB0346C7F82C31D7EDF5
:101490004B7AFDEEE77A17EE900AFFF71BFD97F8FF
:1014A0003331082B7FF4FCAD0B4B1B68D7F81821A8
:1014B000D31A43F698229342FFF4F2AD064AD7F8C6
:1014C0001831136097F83331043B87F83331E7E57F
:1014D000143B0008840000208C00002080B485B0FC
:1014E00000AF78600CE00023FB6002E0FB68013392
:1014F000FB60FB68B3F5266FF8DD7B68013B7B6022
:101500007B68002BEFDC00BF00BF1437BD465DF8E1
:10151000047B704780B586B000AF7860144A154BE5
:10152000D31A7B617B693B61134B1B68002B02D193
:10153000114B124A1A60104B1A687B6813443A69BF
:101540009A4207D200F0E6FB03460C221A604FF0E5
:10155000FF3309E0084B1B68FB60074B1A687B6888
:101560001344054A1360FB6818461837BD4680BD12
:101570000000022000040000900000201005002060
:1015800080B400AF064BD3F88830054A43F47003AB
:10159000C2F8883000BFBD465DF8047B704700BFCD
:1015A00000ED00E080B485B000AF504B1B68FB60DD
:1015B0004E4B5B68BB6000237B60FB6803F020033D
:1015C000002B36D0BB68DBB23B717B7943F0010363
:1015D0007B717B7943F008037B71FB6803F00203A6
:1015E000002B15D0BB68002B0ED17B7943F0200374
:1015F0007B717B796FF3C3037B713C4BDB683B4AA8
:1016000023F02003D36003E07B7943F002037B7176
:10161000FB6803F00103002B0BD07B7943F004033C
:101620007B717B7943F002037B717B796FF3C3039A
:101630007B71FB6803F01003002B0DD07B7943F026
:1016400010037B717B7943F001037B71274BDB68CF
:10165000264A43F02003D3607B7903F00103DBB219
:10166000002B18D0224B1B685A1C21490A602149C3
:101670007A6841F823201E4B1B683F2B02D91C4B74
:1016800000221A601C4B1B683F2B04D81A4B1B68A6
:101690000133194A1360FB6803F08003002B1ED04E
:1016A000164B1B68002B0ED0154B1B685A1C144997
:1016B0000A601B78DAB20D4B5A60104B1B68013B75
:1016C0000E4A13600BE0094BDB68084A23F08003E5
:1016D000D3600A4B00221A60094B00221A6000BF37
:1016E0001437BD465DF8047B704700BF00440040DE
:1016F0009C000020A4000020A000002098000020F2
:101700009400002080B485B000AF504B1B68FB6094
:101710004E4B5B68BB6000237B60FB6803F02003DB
:10172000002B36D0BB68DBB23B717B7943F0010301
:101730007B717B7943F008037B71FB6803F0020344
:10174000002B15D0BB68002B0ED17B7943F0200312
:101750007B717B796FF3C3037B713C4BDB683B4A46
:1017600023F02003D36003E07B7943F002037B7115
:10177000FB6803F00103002B0BD07B7943F00403DB
:101780007B717B7943F002037B717B796FF3C30339
:101790007B71FB6803F01003002B0DD07B7943F0C5
:1017A00010037B717B7943F001037B71274BDB686E
:1017B000264A43F02003D3607B7903F00103DBB2B8
:1017C000002B18D0224B1B685A1C21490A60214962
:1017D0007A6841F823201E4B1B683F2B02D91C4B13
:1017E00000221A601C4B1B683F2B04D81A4B1B6845
:1017F0000133194A1360FB6803F08003002B1ED0ED
:10180000164B1B68002B0ED0154B1B685A1C144935
:101810000A601B78DAB20D4B5A60104B1B68013B13
:101820000E4A13600BE0094BDB68084A23F0800383
:10183000D3600A4B00221A60094B00221A6000BFD5
:101840001437BD465DF8047B704700BF00100140AF
:10185000AC010020B4010020B0010020A80100204C
:10186000A401002080B485B000AF504B1B68FB6022
:101870004E4B5B68BB6000237B60FB6803F020037A
:10188000002B36D0BB68DBB23B717B7943F00103A0
:101890007B717B7943F008037B71FB6803F00203E3
:1018A000002B15D0BB68002B0ED17B7943F02003B1
:1018B0007B717B796FF3C3037B713C4BDB683B4AE5
:1018C00023F02003D36003E07B7943F002037B71B4
:1018D000FB6803F00103002B0BD07B7943F004037A
:1018E0007B717B7943F002037B717B796FF3C303D8
:1018F0007B71FB6803F01003002B0DD07B7943F064
:1019000010037B717B7943F001037B71274BDB680C
:10191000264A43F02003D3607B7903F00103DBB256
:10192000002B18D0224B1B685A1C21490A60214900
:101930007A6841F823201E4B1B683F2B02D91C4BB1
:1019400000221A601C4B1B683F2B04D81A4B1B68E3
:101950000133194A1360FB6803F08003002B1ED08B
:10196000164B1B68002B0ED0154B1B685A1C1449D4
:101970000A601B78DAB20D4B5A60104B1B68013BB2
:101980000E4A13600BE0094BDB68084A23F0800322
:10199000D3600A4B00221A60094B00221A6000BF74
:1019A0001437BD465DF8047B704700BF001401404A
:1019B000BC020020C8020020C4020020B80200209F
:1019C000B402002080B500AF564B00221A60564B7F
:1019D00000221A60554B00221A604FF480720021D9
:1019E000534800F06BF9534B1B6B524A43F0010311
:1019F0001363514B1B68504A23F4400313604E4B52
:101A00001B684D4A43F4000313604B4B1B684A4A62
:101A100023F040731360484B1B68474A43F0007340
:101A20001360454B5B68444A23F400635360424BA8
:101A30009B68414A43F4400393603F4BDB683E4A56
:101A400023F04073D3603C4BDB683B4A43F00073A8
:101A5000D360394B5B6A384A23F47F235362364B99
:101A60005B6A354A43F408235362324B5B6C314A5C
:101A700043F0200353642F4B5B6A2E4A43F020034C
:101A800053622C4B5B6A2B4A23F0200353622B4B8F
:101A9000DB682A4A23F00C03D360284BDB68274A13
:101AA00043F40053D360254B9B68244A1B0C1B0452
:101AB0009360224B9B68214A43F08B0393601F4B3A
:101AC000DB681E4A23F40043D3601C4B1B691B4A8E
:101AD00023F440531361194BDB68184A23F48063E5
:101AE000D360164B1B69154A23F400631361134B33
:101AF000DB68124A23F48053D360104B5B690F4AB2
:101B000023F4407353610E4B302283F847230C4B70
:101B100080229A60094BDB68084A43F03C03D3609B
:101B200000BF80BDBC020020C0020020C402002013
:101B3000C8020020003802400000024000140140AA
:101B400000E100E080B483B000AF7860124B1B6806
:101B5000002B1AD07B68002B17D0104B1B685A1C27
:101B60000E490A607A680E4951F8233013600A4B17
:101B70001B68013B084A1360084B1B683F2B02D9C6
:101B8000064B00221A60012300E0002318460C37A0
:101B9000BD465DF8047B7047C4020020C0020020EF
:101BA000C802002080B400AF094B1B68002B03D192
:101BB000084B1B68002B01D0012300E0002303F039
:101BC0000103DBB21846BD465DF8047B704700BFD9
:101BD000B4020020B802002080B483B000AF786067
:101BE00039600E4B1B68002B03D10D4B1B68002B7B
:101BF00001D000230CE0094A7B681360084A3B6867
:101C00001360084BDB68074A43F08003D36001236D
:101C100018460C37BD465DF8047B7047B4020020BF
:101C2000B802002000140140DFF834D00D480E49FE
:101C30000E4A002302E0D458C4500433C4188C4226
:101C4000F9D30B4A0B4C002301E013600432A2428B
:101C5000FBD3FFF795FC00F063F8FFF7CFF970476F
:101C6000000002200000002060000020883B0008E7
:101C70006000002010050020FEE700000EB400B553
:101C80009CB01DAB029006906FF00041094807918F
:101C90000491094953F8042B05910068019302A9A6
:101CA00000F0B6F9029B00221A701CB05DF804EB3C
:101CB00003B070474C0000200802FFFF02440346B7
:101CC000934200D1704703F8011BF9E7C9B20346FC
:101CD00010F8012B1AB18A42F9D118467047002931
:101CE00018BF0023F9E70A7870B56AB970BD9A4247
:101CF00009D10C46054614F8013F002BF6D015F823
:101D0000016F9E42F7D001300378002BEFD11846C7
:101D1000ECE70000014B1868704700BF4C00002042
:101D200070B50D4D0D4C641BA4100026A64209D1C0
:101D30000B4D0C4C01F07AFE641BA4100026A64249
:101D400005D170BD55F8043B98470136EEE755F8CC
:101D5000043B98470136F2E7803B0008803B0008CF
:101D6000803B0008843B00087047704737B5002966
:101D700044D051F8043C0190002BA1F10404B8BFF9
:101D8000E41800F0DFF81E4A0198136833B9636065
:101D9000146003B0BDE8304000F0DAB8A34208D9BF
:101DA000256861198B4201BF19685B684919216078
:101DB000EDE71A465B680BB1A342FAD911685518D2
:101DC000A5420BD1246821445418A3421160E0D1EC
:101DD0001C685B6853600C441460DAE702D90C237A
:101DE0000360D6E7256861198B4204BF19685B68F8
:101DF000636004BF491921605460CAE703B030BD75
:101E00000805002070B50E4E0C463168054611B924
:101E100000F0A6FB30602146284600F0A1FB431CE1
:101E20000AD0C41C24F00304A04207D0211A28467B
:101E300000F096FB013001D14FF0FF34204670BD19
:101E40000C0500202DE9F843CD1C25F003050835CD
:101E50000C2D38BF0C25002D074601DBA94205D902
:101E60000C233B6000263046BDE8F883DFF8D080C5
:101E700000F068F8D8F800301C465CBB29463846AC
:101E8000FFF7C0FF431C044655D1D8F80040264652
:101E9000002E45D1002C48D023683146384604EB4B
:101EA000030900F05DFB81453FD121686D1A294689
:101EB0003846FFF7A7FF013037D023682B44236053
:101EC000D8F80030002B38D05A68A2422BD100221B
:101ED0005A600FE02268521B1FD40B2A17D96119D0
:101EE000A342256018BF5960636808BFC8F8001096
:101EF00062514B60384604F10B0600F029F826F0D9
:101F00000706231DF21AAED09B1BA350ABE7A342DA
:101F10006268DDD1C8F80020ECE723466468ACE7CE
:101F200034467668B4E71346CCE70C233B6038466A
:101F300000F00EF897E72560DCE75B60FFDE00BF8E
:101F4000080500200148FFF70FBF00BF040500206F
:101F50000148FFF70ABF00BF040500202DE9F04744
:101F60008E681F46BE420B6882460C4690462CD8AF
:101F70008A8912F4906F26D06569096905EB4505D9
:101F8000A3EB010905EBD5757B1C4B446D109D42FD
:101F900038BF1D46530527D52946FFF753FF064690
:101FA00060B321694A4600F0EBFAA38923F49063F9
:101FB00043F08003A381266165614E44A5EB0905CA
:101FC0002660A5603E46BE4200D93E4620683246A5
:101FD000414600F0ABFAA3689B1BA360236833441F
:101FE00023600020BDE8F0872A4600F0D7FA0646B5
:101FF0000028E0D121695046FFF7B8FE0C23CAF84B
:102000000030A38943F04003A3814FF0FF30E9E79C
:102010002DE9F04F98468B891B069DB007460D466B
:1020200014460ED50B6963B94021FFF70BFF2860FA
:10203000286120B90C233B604FF0FF30D0E04023F3
:102040006B610023099320238DF82930CDF80C8093
:102050003023DFF8A4818DF82A304FF001092346A0
:102060009A4613F8012B0AB1252AF9D1BAEB040BD1
:102070000BD05B46224629463846FFF76FFF0130FA
:1020800000F0A980099A5A4409929AF80030002B6E
:1020900000F0A18000234FF0FF32CDE905230AF1C3
:1020A000010A049307938DF853301A93544605227E
:1020B00014F8011B5048FEF79BF8049AD8B9D006D3
:1020C00044BF20238DF85330110744BF2B238DF8D4
:1020D00053309AF800302A2B15D0079A5446002026
:1020E0004FF00A0C214611F8013B303B092B4DD92A
:1020F000B0B1079214E0A0EB080309FA03F313430D
:102100000493A246D2E7039B191D1B680391002B81
:10211000BBBF5B4242F0020207930793B8BF049231
:1021200023782E2B0CD163782A2B34D1039B1A1DD4
:102130001B680392002BB8BF4FF0FF3302340593A6
:10214000DFF8C4A0217803225046FEF751F838B1D9
:10215000049BA0EB0A004022824013430134049305
:1021600014F8011B25488DF828100622FEF740F8C8
:10217000002838D0224B1BBB039B073323F00703F7
:1021800008330393099B3344099368E70CFB02323D
:102190000C460120A6E700230134059319464FF0B1
:1021A0000A0C204610F8012B303A092A03D9002BDB
:1021B000C6D00591C4E70CFB012104460123F0E7DA
:1021C00003AB00932A460F4B04A93846AFF30080B7
:1021D000421C0646D6D1AB895B063FF52DAF099868
:1021E0001DB0BDE8F08F03AB00932A46054B04A950
:1021F000384600F079F8EBE7173B0008213B000870
:10220000000000005D1F00081D3B00082DE9F0479D
:10221000164699468A680B69DDF820809342B8BF5C
:102220001346336091F8432007460C460AB1013348
:1022300033602368990642BF3368023333602568F0
:1022400015F0060506D104F1190AE36832689B1AF5
:10225000AB4226DC94F84320131E226818BF0123EA
:1022600092062BD404F1430249463846C047013058
:102270001ED02368226903F00603042B02BFE56821
:102280003368ED1AA3680CBF25EAE5750025934273
:10229000C4BF9B1AED1800261A34B5421AD100208B
:1022A00008E00123524649463846C047013003D171
:1022B0004FF0FF30BDE8F0870135C6E7E1185A1C42
:1022C000302081F84300224494F8451082F84310EE
:1022D0000233C7E70123224649463846C04701304A
:1022E000E6D00136D9E700002DE9FF470F7E0C9DAF
:1022F000782F914680460C469A4601F1430207D852
:10230000622F0AD8002F00F0D480582F00F0C08030
:1023100004F1420584F842703AE0A7F16303152BFB
:10232000F6D801A151F823F0812300089523000875
:1023300011230008112300081123000811230008AD
:102340009523000811230008112300081123000819
:102350001123000899240008C12300085324000811
:102360001123000811230008BB24000811230008D2
:10237000C123000811230008112300085B24000872
:102380002B681A1D1B682A6004F1420584F842304C
:1023900001239FE020682B68070603F104012960F0
:1023A00001D51E6803E04606FBD5B3F90060002E98
:1023B00003DA2D23764284F843305A480A2312E088
:1023C0002B682068191D2960050601D51E6802E0EA
:1023D0004106FBD51E8853486F2F0CBF08230A23E4
:1023E000002184F843106568A560002DA2BF216814
:1023F00021F0040121600EB9002D4BD01546B6FB2B
:10240000F3F103FB1167C75D05F8017D3746BB4259
:102410000E46F4D9082B0BD12368DE0708D52369B3
:1024200061689942DEBF302305F8013C05F1FF35B4
:10243000521B2261CDF800A04B4603AA214640461C
:10244000FFF7E4FE01304AD14FF0FF3004B0BDE8A1
:10245000F087236843F0200323603348782784F80B
:102460004570236829681F0651F8046B02D45F0683
:1024700048BFB6B2DF0748BF43F02003296048BF1A
:1024800023601EB9236823F0200323601023A7E7ED
:102490002448E4E71546BDE72B6826686169181DE6
:1024A000286035061B6801D5196002E07006FBD56F
:1024B0001980002323611546BCE72B681A1D2A608A
:1024C0001D68626800212846FDF792FE08B1401B96
:1024D000606063682361002384F84330AAE72369BE
:1024E0002A4649464046D0470130ADD023689B0775
:1024F00013D4E068039B9842B8BF1846A6E70123AF
:10250000324649464046D04701309DD00135E36808
:1025100003995B1AAB42F2DCEBE7002504F11906E4
:10252000F5E700BF283B0008393B0008884210B59A
:1025300001EB020402D98442234607D8431EA1427C
:1025400008D011F8012B03F8012FF8E702440146E7
:102550008A4200D110BD13F8014D02F8014DF7E792
:1025600038B5064D0023044608462B60FEF7D2FF1F
:10257000431C02D12B6803B1236038BD0005002045
:102580000A44914200F1FF3300D1704710B511F8B1
:10259000014B03F8014F9142F9D110BD2DE9F041F3
:1025A000804614460E4621B9BDE8F0411146FFF7BA
:1025B00049BC2AB9FFF7DAFB25462846BDE8F08179
:1025C00000F01BF88442074602D8B4EB500F12D833
:1025D00021464046FFF736FC05460028EDD0BC42B8
:1025E0002246314628BF3A46FFF7CAFF31464046E9
:1025F000FFF7BCFBE1E73546DFE751F8043C181F65
:10260000002BBCBF0B58C018704700000000000032
:1026100038B52DED028B55EC104B00F005F9224634
:102620002B4620462946B0EE408AF0EE608AFEF73F
:1026300085FA98B90022002320462946FEF760FA61
:1026400060B10022002320462946FEF745FA60B11A
:10265000FFF760FB9FED0A8B22230360B0EE480A70
:10266000F0EE680ABDEC028B38BDFFF753FBBDEC02
:10267000028B21230360BDE83840034800F084B892
:10268000000000000000F0FF1C3B0008F8B52DED35
:10269000028BB0EE408AF0EE608A55EC114B00F0F0
:1026A0004FF922462B462046294657EC106BFEF781
:1026B00045FA00283BD151EC180B00220023FEF70D
:1026C0000BFAB8B10022002320462946FEF704FA8F
:1026D000002846D145EC104B00F048F838B30022F2
:1026E000002320462946FEF701FA00B3FFF712FB4C
:1026F00022231BE047EC106B00F038F8E0B9B0EE95
:10270000480AF0EE680A00F031F8A8B145EC104B29
:1027100000F02CF880B132463B4630463946FEF791
:102720000DFA0028E2D0FFF7F5FA21230360BDEC93
:10273000028B47EC106BF8BD00220023304639466F
:10274000FEF7CAF90028F2D0B0EE480AF0EE680AA7
:1027500000F00CF80028EAD045EC104B00F006F829
:10276000C3E7014F0026E2E70000F03F82B08DEDA5
:10277000000B019840F0004000F58010C00F02B03F
:1027800070470000000000009FED010B704700BF84
:10279000000000000000F87F53EC102B70B5C3F36D
:1027A0000A54A4F2FF30132810EE105A194618DC10
:1027B000002809DA013003F0004103D141F07F51D4
:1027C00041F4401100232AE0164C044103EA0406B8
:1027D000164311D04FF4002303410B4423EA0401B4
:1027E000F0E733280BDDB0F5806F05D110EE100A4D
:1027F000FDF754FD02460B4643EC102B70BDA4F2CE
:1028000013464FF0FF34F4401442F5D0C0F13300CA
:10281000012383405B1928BF013123EA04031A46D0
:102820000B46E9E7FFFF0F002DE9F84355EC104B8D
:10283000B5F5801F2B462FDA25F00042224309D13F
:102840003B49002200230020FEF708F841EC100B62
:10285000BDE8F883002D09DA10EE102A10EE100AF8
:102860002946FDF719FD00220023EDE7314B002238
:10287000294610EE100AFDF7C7FE6FF03502044638
:102880000D460B462C498B4208DD22462B4620463E
:102890002946FDF703FDD9E70022F3E71815A0F25A
:1028A000FF3010444FEAD07900EBD070C3F3130827
:1028B000FDF740FEC9F57F73033348EA035545EC45
:1028C000104B06460F4600F0F7FE13A3D3E9002392
:1028D0003046394659EC108BFDF796FE10A3D3E92C
:1028E000002304460D4640464946FDF78DFE02464C
:1028F0000B4620462946FDF7D1FC0BA3D3E9002364
:1029000004460D4630463946FDF77EFE02460B462C
:1029100020462946BDE700BF362BF111F3FE593D95
:102920000EE526157BCBDB3F00609F501344D33F61
:10293000000050C300005043FFFFEF7F0000000085
:102940002DE9F04F2DED068B89B08DED001BDDE9F3
:10295000002929F0004858EA020157EC106B15D104
:10296000B31987F4002252419942894B934180F078
:10297000D184DDE9002330463946FDF78FFC41EC78
:10298000100B09B0BDEC068BBDE8F08F814B27F032
:1029900000449C4210EE10AA3D4606DC01D1002EF8
:1029A000E7D1984501DC0FD172B105F1404505F53D
:1029B000801555EA0A05DCD1DDE90032DB1882F426
:1029C000002252419D42D0E7002D3BDA724B9845E0
:1029D00051DCA3F15473984540F3AB844FEA28537C
:1029E000A3F2FF33142B0FDDC3F1340322FA03F1FA
:1029F00001FA03F3934240F09C8401F00101C1F11C
:102A00000203049382B15FE0002A5BD1C3F1140397
:102A100048FA03F101FA03F3434540F0878401F0DB
:102A20000101C1F1020304935C4B984532D1B9F125
:102A3000000F80F27784594932463B460020FDF76B
:102A40000DFF9CE700230493002A3DD1514B98458C
:102A5000EAD104F1404303F5801353EA0A0300F07E
:102A600059844F4B9C4208DDB9F1000FC0F25684E7
:102A7000DDE9000183E70223E5E7B9F1000F4FF03C
:102A800000004FF00001BFF67AAFDDE9000303F16B
:102A9000004174E7B9F1804F06D132463B463046DB
:102AA0003946FDF7B1FD6AE73E4B99450CD1002D43
:102AB0000ADB47EC106B09B0BDEC068BBDE8F04FAC
:102AC00000F020BD0023049347EC106B00F062FC83
:102AD00051EC100BBAF1000F29D124B12F4B25F086
:102AE00040429A4223D1B9F1000F05DA02460B4663
:102AF00000202A49FDF7B2FE002DBFF640AF049B2F
:102B000004F1404404F580141C4308D102460B46EE
:102B100010461946FDF7C0FB02460B468FE7049BA3
:102B2000012B7FF42CAF01F10043194627E7EB0F8F
:102B3000013B0693069A049B134302D132463B465F
:102B4000E6E7194B984540F3FB8003F10473984581
:102B5000134B0CDD9C420FDCB9F1000F0FDA0020A3
:102B600009B0BDEC068BBDE8F04F00F0C2BC9C4242
:102B7000F2DB0A4B9C4219DDB9F1000FEFDC0020BB
:102B800009B0BDEC068BBDE8F04F00F0A9BC00BF5A
:102B90000000F0FF0000F07FFFFF3F430000F03F28
:102BA000FFFFEF3F0000E03F0000E041604B0022EC
:102BB000FDF772FB54A3D3E9002304460D46FDF74D
:102BC00023FD53A3D3E9002306460F46204629469A
:102BD000FDF71AFD574B82468B46002220462946B8
:102BE000FDF712FD02460B464BA1D1E90001FDF7AE
:102BF00053FB22462B46FDF707FD02460B460020FD
:102C00004D49FDF749FB2246804689462B46204622
:102C10002946FDF7F9FC02460B4640464946FDF7BA
:102C2000F3FC3FA3D3E90023FDF7EEFC02460B467D
:102C300050465946FDF730FB02460B468046894612
:102C400030463946FDF72AFB002032463B46044613
:102C50000D46FDF721FB02460B4640464946FDF76F
:102C60001BFB049B069A013B134382468B4640F0B4
:102C7000E7819FED2D7BB0EE478AF0EE678ADDE9B4
:102C80000067002632463B46DDE90001FDF704FB04
:102C900022462B46FDF7B8FCDDE900238046894635
:102CA00050465946FDF7B0FC02460B4640464946A1
:102CB000FDF7F4FA32463B468046894620462946CF
:102CC000FDF7A2FC0B4604460D4602464946404627
:102CD000FDF7E4FA194B994245EC194B06460F46AD
:102CE0008B4640F3F08201F13F4303F5E0030343D9
:102CF00000F0E48151EC180B00220023FDF7F6FEF2
:102D0000003818BF01202BE7000000604715F73F8F
:102D100044DF5DF80BAE543E555555555555D53FDE
:102D2000FE822B654715F73F000000000000F0BF52
:102D30000000F03F0000D03F0000E03FFFFF8F4069
:102D4000D54B2B4000222BB9D44BFDF75DFC6FF027
:102D500034020C462315A3F2FF3313440593D04BE2
:102D6000C4F3130444F07F559C4245F4401508DD3C
:102D7000CC4B9C4240F36281059B01330593A5F542
:102D800080150024E3000793C74B03EBC40393EDC6
:102D9000007B294653EC172BB0EE479AF0EE679A6A
:102DA0008246FDF779FA524606460F462B4651EC0D
:102DB000190BFDF773FA02460B460020BB49FDF7DD
:102DC0004DFD41EC1A0B02460B4630463946FDF7E5
:102DD0001BFC0023CDE902010293DDE90289AB4629
:102DE0006D1045F0005505F5002541EC180B05EB7D
:102DF000844300224046494614461D46FDF704FC24
:102E000002460B4630463946FDF746FA53EC192B7D
:102E100006460F4620462946FDF73EFA02460B4677
:102E200050465946FDF738FA42464B46FDF7ECFB53
:102E300002460B4630463946FDF72EFA53EC1A2B64
:102E4000FDF7E2FB53EC182B41EC190B51EC180B7E
:102E5000FDF7DAFB7CA3D3E9002304460D46FDF71A
:102E6000D3FB7BA3D3E90023FDF718FA22462B46B8
:102E7000FDF7CAFB78A3D3E90023FDF70FFA22463A
:102E80002B46FDF7C1FB76A3D3E90023FDF706FA35
:102E900022462B46FDF7B8FB73A3D3E90023FDF7C9
:102EA000FDF922462B46FDF7AFFB71A3D3E90023C2
:102EB000FDF7F4F9224606460F462B4620462946E2
:102EC000FDF7A2FB02460B4630463946FDF79CFB58
:102ED000424604460D464B4651EC180BFDF7DEF911
:102EE00053EC192BFDF790FB22462B46FDF7D6F944
:102EF000424682468B464B4640464946FDF784FB98
:102F00006B4B002206460F46FDF7C8F952465B465A
:102F1000FDF7C4F9002004460D4602460B46404624
:102F20004946FDF771FB624B8046894600222046E8
:102F30002946FDF7B1F932463B46FDF7ADF90246A9
:102F40000B4650465946FDF7A7F953EC182BFDF7F1
:102F50005BFB224606460F462B4651EC190BFDF74C
:102F600053FB02460B4630463946FDF797F90646B5
:102F70000F4602460B4640464946FDF78FF93EA3F1
:102F8000D3E90023002004460D46FDF73DFB4246F1
:102F900041EC180B4B4620462946FDF77DF90246C9
:102FA0000B4630463946FDF777F935A3D3E90023C0
:102FB000FDF72AFB34A3D3E9002306460F4620463B
:102FC0002946FDF721FB02460B4630463946FDF700
:102FD00065F9079A374B1344D3E90023FDF75EF9EF
:102FE000824605988B46FDF7A5FA079A324B1344A3
:102FF000D3E9008906460F4652465B4651EC180B52
:10300000FDF74CF942464B46FDF748F932463B4640
:10301000FDF744F9002032463B4604460D46FDF7D5
:103020003BF942464B46FDF737F953EC182BFDF7B9
:1030300033F902460B465046594610E60124A1E6F4
:103040009FED137B17E600BFEF4E454A287ECA3F2F
:1030500065DBC9934A86CD3F01411DA96074D13F0C
:103060004D268F515555D53FFFAB6FDBB66DDB3F1E
:10307000033333333333E33F000000E009C7EE3F4F
:10308000FD033ADC09C7EE3FF5015B14E02F3EBEBD
:10309000000000000000F03F0000F07F000040430F
:1030A0008E98030079B60B00503B00080000F03FFB
:1030B00000000840703B0008603B0008B3A3D3E960
:1030C000002340464946FDF7E9F8224641EC1A0B39
:1030D0002B4630463946FDF7DFF802460B4651ECE9
:1030E0001A0BFDF721FD00287FF404AEA24A2BF055
:1030F0000043934240F307811B15A3F2FE334FF4C4
:10310000801A4AFA03FADA44CAF30A519B48A1F238
:10311000FF31084100EA0A03CAF3130AC1F114019E
:103120004AF4801A4AFA01FABBF1000F4FF000028C
:1031300020462946B8BFCAF1000AFDF7ADF841ECB8
:10314000190B42464B4651EC190BFDF7A7F87AA331
:10315000D3E90023002004460D46FDF755FA53EC51
:10316000192B06460F4620462946FDF795F80246DC
:103170000B4640464946FDF78FF871A3D3E900237B
:10318000FDF742FA70A3D3E9002380468946204622
:103190002946FDF739FA02460B4640464946FDF7F7
:1031A0007DF804460D4602460B4630463946FDF78B
:1031B00075F832463B4680468946FDF76DF8024673
:1031C0000B4620462946FDF767F8424606460F465D
:1031D0004B4640464946FDF717FA5DA3D3E9002365
:1031E00004460D46FDF710FA5BA3D3E90023FDF773
:1031F00053F822462B46FDF707FA59A3D3E90023DB
:10320000FDF74CF822462B46FDF7FEF956A3D3E90D
:103210000023FDF741F822462B46FDF7F5F954A3AC
:10322000D3E90023FDF73AF822462B46FDF7ECF9E7
:1032300002460B4640464946FDF72EF804460D4629
:1032400002460B4640464946FDF7DEF9002241ECB6
:10325000190B4FF0804320462946FDF71DF8024622
:103260000B4651EC190BFDF7F9FA324604460D46B0
:103270003B4640464946FDF7C7F932463B46FDF717
:103280000DF802460B4620462946FDF705F8424652
:103290004B46FDF701F80B46024639490020FCF782
:1032A000FBFF41EC100B10EE903A03EB0A53B3F521
:1032B000801F2BDA504600F077F851EC100B53ECDE
:1032C000182BFFF7EEBB2F4B21F000469E427FF7F5
:1032D0000DAF2D4B0B44034309D051EC180B0022CA
:1032E0000023FDF703FC003818BF012048E4224604
:1032F0002B46FCF7D1FF42464B46FDF70BFC00285E
:103300003FF4F4AEE9E74FF0000A1AE751EC100B76
:103310001946D4E71A490020FFF731BB00200021ED
:10332000FFF72DBB30463946FFF729BB0492FFF764
:103330007BBB0023FFF765BB00000000432EE63F88
:10334000EF39FAFE422EE63F396CA80C615C20BED4
:10335000D0A4BE726937663EF16BD2C541BDBB3E9B
:103360002CDE25AF6A56113F93BDBE166CC1663F79
:103370003E5555555555C53F0000E03F0000F0FF54
:103380000000F03FFFCB904000346F3FFE822B6582
:103390004715973C51EC100B10EE102A21F000431A
:1033A00043EC102B7047000070B555EC104BC5F383
:1033B0000A5106462B4699B925F0004323433FD0D6
:1033C000354B294610EE100A0022FDF71DF9334B4C
:1033D0009E4204460D4610DA27A3D3E900231FE0DE
:1033E00040F2FF7291420CD110EE102A204629467D
:1033F000FCF754FF04460D4622E00B46C1F30A5188
:1034000036394CF2503296420DDD002D1CA1D1E927
:10341000000102DA1CA1D1E9000119A3D3E90023BC
:10342000FDF7F2F8E6E7721840F2FE718A42ECDC32
:10343000002A08DD23F0FF4323F4E00343EA0255AA
:1034400045EC104B70BD12F1350F08DA002D0AA1C2
:10345000D1E90001C0DA0EA1D1E90001BCE723F0F7
:10346000FF43363223F4E00343EA025120460C4B7B
:103470000022D5E7AFF3008059F3F8C21F6EA50113
:103480009C7500883CE4377E9C7500883CE437FEE0
:1034900059F3F8C21F6EA58100005043B03CFFFFF6
:1034A0000000903C70B504460D461646FEF732FC0F
:1034B00029460660204670BD37B514461D4608B142
:1034C00003F10043CDE90023DDE90023204629462E
:1034D000FDF79AF8222203B0BDE83040FFF7E2BFC3
:1034E00008B500224FF08053FFF7E6FF41EC100BC8
:1034F00008BD08B500224FF0E043FFF7DDFF41ECC7
:10350000100B08BD2DE9F84F55EC104B674EAE433C
:1035100010EE100A10EE102A29462B460DD1FDF7A9
:1035200073F802460B4620462946FCF7B7FE0446D0
:103530000D4645EC104BBDE8F88F002D0BDC25F057
:1035400000462643F5D035B1FCF7A6FE02460B46F1
:10355000FDF784F9EBE7091500F08D80C3F3130341
:10356000A1F2FF3643F48013C9075CBF5B0003EB95
:10357000D2734FEA430358BF5200002503EBD273C6
:10358000761052004FF0160EAC464FF400110CEBC3
:1035900001009842DEBF1B1A00EB010C6D185B00A6
:1035A000BEF1010E03EBD2734FEA51014FEA420222
:1035B000EDD1744620274FF00041634501EB0E002A
:1035C00002DC13D1904211D8002800EB010E57DA2B
:1035D000BEF1000F54DB0CF10108A3EB0C03904289
:1035E00088BF03F1FF33121A0C44C4465B00013F4D
:1035F00003EBD2734FEA51014FEA4202DDD113438C
:103600001BD0DFF8ACA0DFF8ACB0DAE90001DBE9F1
:103610000023FCF741FEDAE9008902460B464046EA
:103620004946FDF76DFA40B1B4F1FF3FDAE9000118
:10363000DBE9002326D101353C466A106308E9071F
:1036400002F17F5202F5001248BF43F0004302EB43
:1036500006551C466DE7D30A15385205002BFAD0E3
:10366000DC020AD5C1F1200422FA04F44D1E8A407E
:103670002343411B72E70846F0E75B000131EFE7A7
:10368000E046AAE7FCF70AFEDAE9008902460B46A3
:1036900040464946FDF72AFA20B1A01C08BF013573
:1036A0000234CAE7013424F00104C6E70000F07FC9
:1036B00050000020580000202DE9F04F51EC100B75
:1036C0002DED048BB1F5801F83B00D4629DA21F072
:1036D0000043034310EE102A0CD1CF4900220023EF
:1036E0000020FDF7BBF841EC100B03B0BDEC048BE0
:1036F000BDE8F08F002905DA0B46FCF7CDFD00226E
:103700000023EEE7C54B0022FCF77EFF6FF0350388
:103710000D46C34A954206DD02460B46FCF7BEFD48
:10372000E1E70023F5E72C15A4F2FF34C5F31305F8
:103730001C4405F5152303F6647303F4801383F02A
:103740007F5282F4401242EA050104EB1354002236
:10375000B44BFCF7A1FDAB1CC3F31303022B824651
:103760008B464FF0000253DC0023FDF7B5F9D0B1D2
:10377000002C00F022812046FCF7DCFE90A3D3E968
:10378000002306460F46FCF73FFF8FA3D3E9002333
:1037900004460D4630463946FCF736FF02460B46D6
:1037A00020462946BAE78AA3D3E900235046594662
:1037B000FCF72AFF02460B4600209B49FCF76CFDF4
:1037C000524606460F465B4650465946FCF71CFFDC
:1037D00002460B4630463946FCF716FF06460F46B2
:1037E00014B932463B46A2E02046FCF7A3FE74A380
:1037F000D3E9002380468946FCF706FF72A3D3E98C
:10380000002304460D4640464946FCF7FDFEA7E06E
:103810004FF08043FCF742FD02460B4650465946A6
:10382000FDF71CF841EC180B2046FCF783FE53EC27
:10383000182B41EC190B51EC180BFCF7E5FEA5F524
:10384000C223A3F27A43019302460B46804689467F
:10385000FCF7DAFE60A3D3E9002306460F46FCF727
:10386000D3FE5FA3D3E90023FCF718FD32463B46A5
:10387000FCF7CAFE5CA3D3E90023FCF70FFD324638
:103880003B46FCF7C1FE5AA3D3E90023FCF706FD33
:1038900042464B46FCF7B8FE57A3D3E900238046C7
:1038A000894630463946FCF7AFFE55A3D3E90023DD
:1038B000FCF7F4FC32463B46FCF7A6FE52A3D3E9E4
:1038C0000023FCF7EBFC32463B46FCF79DFE0B4623
:1038D000024649464046FCF7E1FCC5F5D725019B69
:1038E00051351D43002D8046894648DD4E4B002250
:1038F00050465946FCF788FE52465B46FCF784FE6C
:1039000002460B4606460F4640464946FCF7C6FCB3
:1039100053EC182BFCF778FE8046894664B90246C2
:103920000B4630463946FCF7B7FC02460B4650467C
:103930005946FCF7B1FCD6E621A3D3E9002351ECAC
:10394000190BFCF761FE20A3D3E9002304460D46C2
:1039500051EC190BFCF758FE42464B46FCF79EFC17
:1039600002460B4630463946FCF796FC52465B460B
:10397000FCF792FC02460B4620462946D9E7024650
:103980000B4650465946FCF787FC53EC182BFCF7C6
:103990003BFE06460F46002C3FF423AF08A3D3E9B5
:1039A000002351EC190BFCF72FFE07A3D3E90023EA
:1039B00004460D4651EC190B27E79FED150B94E6D5
:1039C0000000E0FE422EE63F763C7935EF39EA3DD5
:1039D000555555555555D53F44523EDF12F1C23F1E
:1039E000DE03CB966446C73F599322942449D23FC5
:1039F000935555555555E53F9FC678D0099AC33F15
:103A0000AF788E1DC571CC3F04FA97999999D93F2B
:103A10000000000000000000000050C30000504300
:103A2000FFFFEF7F0000F03F0000E03FF8B500BF70
:103A3000F8BC08BC9E467047F8B500BFF8BC08BC8F
:043A40009E467047E7
:103A480041542B5253540D0A0000000041540D0AF2
:103A58000000000041542B43574D4F44453D310D64
:103A68000A00000041542B43574A41503D226E65DD
:103A78006F63617374696C6C6F222C22636F63616E
:103A8800636F6C6131220D0A0000000041542B4322
:103A980049504D55583D300D0A00000041542B4304
:103AA800495053544152543D22544350222C223100
:103AB80038342E3130362E3135332E313439222CEC
:103AC80038300D0A00000000474554202F757064F7
:103AD8006174653F6170695F6B65793D5133454F2E
:103AE800494D54305759465A4449535726666965D3
:103AF8006C64313D25640D0A0000000041542B43DD
:103B0800495053454E443D25640D0A004F4B002350
:103B18002D302B2000686C4C0065666745464700D1
:103B280030313233343536373839414243444546EB
:103B38000030313233343536373839616263646581
:103B48006600000000000000000000000000F03FD8
:103B5800000000000000F83F000000000000000026
:103B68000000004003B8E23F000000000000000031
:083B780006D0CF43EBFD4C3EEB
:043B8000C501000873
:043B8400A101000893
:103B880000000000C8030020300400209804002032
:103B9800000000000000000000000000000000001D
:103BA800000000000000000000000000000000000D
:103BB80000000000000000000000000000000000FD
:103BC80000000000000000000000000000000020CD
:103BD800000000000000F03F59F3F8C21F6EA50175
:0400000508001C29AA
:00000001FF
